:020000040000fa
:080000000002040000000000f2
:020000040000fa
:100400000f802000007f2200000188000000000013
:100410000c000700a0372000010020001100070099
:10042000000020000000e000020032000000020096
:10043000000000006c030200000000000040da0031
:100440000000fe004440a900e00020000000e000a1
:100450000300320000002000a00188004440a800f2
:100460000000060091018800800078000000eb0089
:1004700015003700e280400032a0b4009101ba00bc
:10048000e280400032a0b4009102ba00e280400055
:1004900032a0b4000002eb00472bde00f507b200eb
:1004a000602ce10004003a000059eb008301e900f0
:1004b000fdff3e00040037006128e100010032002a
:1004c0000082eb00040007001101ba000200e00006
:1004d000e8ff3a00000006003159ba008301e90044
:1004e0000c0032002159ba008301e90008003200f3
:1004f0000400e00003003a00e280400032a0b400b3
:10050000f5ff370011d9ba008301e900faff3a007c
:100510008100e800e180400032a0b4000000060045
:020000040000fa
:020000040002f8
:04aff800befb00009c
:020000040000fa
:020000040002f8
:04affc007f3f000093
:020000040000fa
:100008007c0300007c0300007c0300007c030000ec
:100018007c0300007c0300007c0300007c030000dc
:100028007c0300007c0300007c0300007c030000cc
:100038007c0300007c0300007c0300007c030000bc
:020000040000fa
:020000040000fa
:10052000686500006c6c00006f2c000020770000f4
:0c0530006f7200006c640000000000000e
:020000040000fa
:10053c000200fa00000f78000000eb0000088800b1
:10054c009e00780000088000808f5000fcff3e0069
:10055c000080fa00000006000000fa00f03b2800c2
:10056c0000308800f03f2000103088001000200080
:10057c00603088000003280020088800007d2000df
:10058c00ebff07000000eb0020308800000021008a
:10059c00403088000000eb0000088800300020008c
:1005ac00e3ff0700c000200040308800300020002e
:1005bc00dfff0700100020004030880040062000bc
:1005cc00dbff070060002000403088004006200060
:1005dc00d7ff07000080fa00000006000400fa00b4
:1005ec001007980003c6bf0001c8b30001406000ab
:1005fc000004e000fbff3a001e0090002030880051
:10060c0040308000000f780003c6bf0001c8b30063
:10061c00014060000004e000fbff3a004030800025
:10062c000000fb000080fa00000006000400fa0045
:10063c00000f7800214798000000eb00e7ff07004f
:10064c000004e000fcff350003c6bf0001c8b30086
:10065c00014060000004e000fbff3a001e0078003f
:10066c00203088002e4090000000fb0040308800b5
:10067c000080fa00000006000200fa008e007800ec
:10068c00800878000a0037000e007800100078000f
:10069c00104178008e0078000e00780090017800f0
:1006ac00e18841008240780010002000dfff070045
:1006bc000e00780010007800104078000004e00074
:1006cc00f1ff3a000080fa00000006000200fa0078
:1006dc000000eb00000f78009fff070000292800a6
:0806ec00e5ff0700ffff3700e6
:020000040000fa
:0406f4000000000002
:020000040000fa
:0406f8000000fe0000
:00000001FF
