:020000040000fa
:080000000002040000000000f2
:020000040000fa
:100400006f922000007f22000001880000000000a1
:100410000c00070080c0210001002000110007002f
:10042000000020000000e000020032000000020096
:100430000000000068160200000000000040da0022
:100440000000fe004440a900803d20000000e000c4
:100450000300320000002000a00188004440a800f2
:100460000000060091018800800078000000eb0089
:1004700015003700e280400032a0b4009101ba00bc
:10048000e280400032a0b4009102ba00e280400055
:1004900032a0b4000002eb00472bde00f507b200eb
:1004a000602ce10004003a000059eb008301e900f0
:1004b000fdff3e00040037006128e100010032002a
:1004c0000082eb00040007001101ba000200e00006
:1004d000e8ff3a00000006003159ba008301e90044
:1004e0000c0032002159ba008301e90008003200f3
:1004f0000400e00003003a00e280400032a0b400b3
:10050000f5ff370011d9ba008301e900faff3a007c
:100510008100e800e180400032a0b4000000060045
:100520006022b800060220000000d0008180d200c6
:100530000482d2008582d2000000a0000202520094
:1005400083825a00030031000202420083824a0083
:100550000000a1000603e900f3ff3a0000000600d6
:020000040000fa
:020000040002f8
:04aff800bdfa00009e
:020000040000fa
:020000040002f8
:04affc007f3f000093
:020000040000fa
:100008005a1d00005a1d00005a1d00005a1d00000c
:100018005a1d00005a1d00005a1d00005a1d0000fc
:100028005a1d00005a1d00005a1d00005a1d0000ec
:100038005a1d00005a1d00005a1d00005a1d0000dc
:020000040000fa
:10058000204c000043440000204300006f6e000038
:10059000747200006f6c00006c6500007220000037
:1005a000204900006e740000657200006e6100005a
:1005b0006c200000426900006173000020200000f0
:1005c0002056000042410000542000006f700000df
:1005d0006572000061740000696f00006e20000009
:1005e000204600006f720000205000006f7700006e
:1005f0006572000020660000616900006c20000048
:10060000205300006978000020430000686100006a
:100610006e6e0000656c00002020000020200000ad
:10062000204400004d410000206300006f6e000078
:10063000747200006f6c00006c6500007220000096
:100640002052000054430000432000006f7000005f
:100650006572000061740000696f00006e20000088
:10066000206900006e200000564200004154000046
:10067000206d00006f640000652000002020000055
:10068000204500006e680000616e00006365000098
:1006900064200000205000004d5000002020000089
:1006a000204d00006f640000756c000065200000a4
:1006b000202000002020000020200000202000003a
:1006c0004d690000637200006f63000068690000fc
:1006d00070200000202000002020000020200000ca
:1006e00054650000636800006e6f00006c6f0000ce
:1006f000677900002c200000496e00006320000094
:100700005072000065730000656e0000746900009f
:100710006e67000020740000686500002020000063
:100720005049000043320000344600004a310000c6
:100730003238000047410000303100003020000016
:10074000436f000070790000726900006768000064
:100750007420000032300000313000002020000002
:100760002020000020200000202000002020000089
:100770002020000020200000202000002020000079
:10078000313600002d620000697400002020000056
:100790002020000020200000202000002020000059
:1007a0004d690000637200006f6300006f6e00000f
:1007b000747200006f6c00006c6500007220000015
:1007c000313600004d49000050530000202f00003a
:1007d00020330000324d0000487a00002020000045
:1007e000322e000030560000202d00002033000083
:1007f0002e3600005620000020200000202000009f
:1008000046650000617400007572000065730000a9
:100810003a200000202000002020000020200000be
:1008200053740000616e0000646100007264000097
:100830002044000065760000696300006520000028
:10084000496e0000747200006f6400007563000060
:10085000696e0000672000004e65000077200000f0
:10086000507200006f640000756300007420000087
:100870004665000061740000757200006573000039
:100880003220000053500000492000006d6f00002e
:10089000647500006c6500007320000020200000db
:1008a0003220000049320000432000006d6f00003c
:1008b000647500006c6500007320000020200000bb
:1008c0003220000055410000525400007320000007
:1008d000772f0000204900007244000041200000f2
:1008e00050610000726100006c6c0000656c0000db
:1008f00020200000202000002020000020200000f8
:10090000456e000068200000506100007261000028
:100910006c6c0000656c00002020000020200000ae
:100920004d610000737400006572000020500000eb
:100930006f720000742000002020000020200000c2
:1009400035300000306b000020730000616d000046
:10095000706c0000652000002020000020200000b6
:10096000313000002d620000697400002041000059
:100970002f44000020200000202000002020000044
:1009800043680000617200006765000020540000a9
:10099000696d00006520000020200000202000007c
:1009a0004d6500006173000075720000656d000008
:1009b000656e000074200000556e00006974000030
:1009c000584c00005020000054650000636800008f
:1009d0006e6f00006c6f000067790000202000003f
:1009e000323500006e4100002044000065650000c3
:1009f00070200000536c000065650000702000004e
:100a000032300000306b000020730000616d000088
:100a1000706c0000652000002020000020200000f5
:100a2000313200002d620000697400002041000096
:100a30002f440000206f00007220000020200000e2
:100a400035200000505700004d2000006f7200005c
:100a50002020000020200000202000002020000096
:100a60004f75000074700000757400002063000072
:100a70006f6d0000706100007265000020200000b2
:100a800035200000496e00007075000074200000e1
:100a90004361000070740000757200006520000062
:100aa00052650000616c00002d740000696d00004b
:100ab00065200000636c00006f6300006b20000085
:100ac000616e000064200000636100006c6500003e
:100ad0006e640000617200002020000020200000f1
:100ae0005761000074630000686400006f670000d5
:100af00020540000696d0000657200002020000095
:100b00004f6e00002d630000686900007020000037
:100b1000766f00006c7400006167000065200000c3
:100b200072650000677500006c610000746f000062
:100b30007220000020200000202000002020000063
:100b400035200000313600002d620000697400007d
:100b500020740000696d00006572000073200000c1
:100b6000333200002d62000069740000206f000025
:100b700070740000696f00006e7300002020000098
:100b80004d6100006e790000206f0000736300006b
:100b9000696c00006c610000746f0000722000003e
:100ba0006d6f0000646500007320000020200000cd
:100bb0002020000020200000202000002020000035
:100bc000384d0000487a0000206900006e74000073
:100bd000657200006e6100006c20000020200000a3
:100be0006f730000636900006c6c000061740000aa
:100bf0006f72000020200000202000002020000054
:100c000050650000726900007068000065720000a5
:100c1000616c000020500000696e00002020000080
:100c2000536500006c650000637400002020000024
:100c300020200000202000002020000020200000b4
:100c400055530000422000004f6e00002d5400005c
:100c5000686500002d4700006f2c00002020000078
:100c60004465000076690000636500002c200000e8
:100c7000456d000062200000486f000073740000a2
:100c80002020000045780000706c00006f720000aa
:100c90006572000020310000362000002020000096
:100ca0000044000065760000656c00006f70000075
:100cb0006d6500006e740000204200007264000048
:100cc00020000000000300000306000001040000f3
:100cd0000602000005000000030500001f1c0000c4
:100ce0001f1e00001f1e00001f1f00001e1f00000f
:100cf0001e1f00000003000004060000070900009a
:100d00000a0c00000003000004060000080c0000ac
:020000040000fa
:100d10000600fa0046013700716220009140780019
:100d2000c0cfb30000c0600027e6b70020318000cc
:100d3000a04688007162200091407800c0cfb300c7
:100d400000c060000004a00027e6b700203180004a
:100d5000b04688007162200091407800c0cfb30097
:100d600000c060000014a00027e6b700203180001a
:100d7000c046880027c6bf003040b30027e6b70052
:100d800020318000d04688007162200091407800b8
:100d9000c0cfb30000c0600027e6b700203180005c
:100da000e04688007162200091407800c0cfb30017
:100db00000c060000004a00027e6b70020318000da
:100dc000f04688007162200091407800c0cfb300e7
:100dd00000c060000014a00027e6b70020318000aa
:100de0000047880027c6bf003040b30027e6b700a1
:100df0002031800010478800a1468000e046800036
:100e0000808f50000a013a00b1468000f046800011
:100e1000808f500006013a00c146800000478000e4
:100e2000808f500002013a00d146800010478000b8
:100e3000808f5000fe003a00d9c8bf000080fb0040
:100e40006101b900e0ff2f00f1ff2f000201400017
:100e500083814800120798002307980000012000b2
:100e6000010020001e019000ae019000800f510093
:100e7000818f590014003e001e009000ae009000cb
:100e800000600100170037001d0037002300370005
:100e9000290037002f003700350037003b003700ae
:100ea0004100370008003700070037000600370010
:100eb0000500370004003700030037004100370009
:100ec000470037004d003700a0c4b300c4e8b700a6
:100ed00010c6b300c5e8b700e0c6b300c6e8b70067
:100ee0004c00370060c4b300c4e8b70050c6b3007c
:100ef000c5e8b70020c6b300c6e8b7004500370014
:100f0000d0c4b300c4e8b70010c6b300c5e8b7004a
:100f100020c7b300c6e8b7003e00370010c4b300d6
:100f2000c4e8b70000c7b300c5e8b70020c7b300e6
:100f3000c6e8b70037003700d0c4b300c4e8b70034
:100f400010c6b300c5e8b70090c7b300c6e8b70045
:100f500030003700a0c4b300c4e8b70050c7b300e6
:100f6000c5e8b700e0c6b300c6e8b70029003700ff
:100f7000a0c4b300c4e8b70050c7b300c5e8b700c9
:100f8000c0c6b300c6e8b7002200370010c4b300e3
:100f9000c4e8b70050c7b300c5e8b70070c6b300d7
:100fa000c6e8b7001b00370030c5b300c4e8b7007f
:100fb00050c6b300c5e8b70000c7b300c6e8b70025
:100fc00014003700f0c4b300c4e8b70030c6b30063
:100fd000c5e8b70040c7b300c6e8b7000d0037004a
:100fe000e0c4b300c4e8b700f0c6b300c5e8b7007a
:100ff00060c7b300c6e8b7000600370040c4b300be
:10100000c4e8b70050c6b300c5e8b70030c6b300a7
:10101000c6e8b70000c2b300c7e8b700c0c2b3005b
:10102000cae8b70000c2b300cbe8b70020c3b300e2
:10103000cce8b70000c3b300cde8b700d8c8bf0004
:101040000080fb004400de000043b000c8e8b700a9
:10105000d8c8bf006f4060000043b000c9e8b700c7
:10106000dac8bf000080fb004400de000043b0008f
:10107000cee8b700dac8bf006f4060000043b000a0
:10108000cfe8b700d7c8bf000080fb00000f780092
:101090009e007800e38f5000280032001e01780087
:1010a000e30f510007003c009e017800e18f5100e2
:1010b000140032001e007800e20f500018003200c9
:1010c000090037009e007800e58f500029003200ab
:1010d0001e017800e50f51001f0035009e017800c9
:1010e000e68f51002a00320030c5b300b4e8b700e3
:1010f00050c7b300b5e8b700e0c6b300b6e8b70024
:1011000029003700d0c4b300b4e8b700f0c6b3007c
:10111000b5e8b700e0c6b300b6e8b7002200370074
:1011200040c5b300b4e8b70050c7b300b5e8b70096
:1011300050c6b300b6e8b7001b00370070c5b30057
:10114000b4e8b70050c6b300b5e8b70040c6b30076
:10115000b6e8b7001400370040c5b300b4e8b700e4
:1011600080c6b300b5e8b70050c7b300b6e8b70013
:101170000d00370060c4b300b4e8b70020c7b30067
:10118000b5e8b70090c6b300b6e8b7000600370070
:1011900030c5b300b4e8b70010c6b300b5e8b70077
:1011a00040c7b300b6e8b70000c2b300b7e8b70065
:1011b000a0c3b300bae8b700a0c3b300bde8b7004e
:1011c000d6c8bf000080fb004400de000043b00032
:1011d000b8e8b700d6c8bf006f4060000043b00059
:1011e000b9e8b700d5c8bf000080fb004400de00ae
:1011f0000043b000bbe8b700d5c8bf006f40600037
:101200000043b000bce8b700d4c8bf000080fb00ba
:101210004400de000043b000bee8b700d4c8bf0001
:101220006f4060000043b000bfe8b7000300370024
:10123000e4c8bf000004e000b7fe32000080fa00fe
:10124000000006001600fa002174200020c0b30040
:1012500062c4b30073c5b300824878008348780045
:10126000804878000000eb0030318800550107000d
:1012700027e6a80027e6a80010c3b3000000fb0083
:101280006f0060004400dd008040780090c3b30030
:101290006f40600000c070002047980000c3b3009a
:1012a0000000fb006f0060004400dd00804078001b
:1012b00080c3b3006f40600000c0700030479800ea
:1012c00000c3b3000000fb006f0060004400dd00bd
:1012d0008040780060c3b3006f40600000c07000c1
:1012e0004047980020c3b3000000fb006f0060007f
:1012f0004400dd008040780040c3b3006f406000d0
:1013000000c070007047980010c3b3000000fb00dd
:101310006f0060004400dd008040780030c3b300ff
:101320006f40600000c070005047980030c5b300a7
:101330000000fb00000f9800a00420008e08900021
:10134000808f500027003200a00420000e0990007a
:10135000800f51000d003c00400420008e099000d9
:10136000808f510070003200600420008e089000d1
:10137000808f50003c003200100420000e099000c5
:10138000800f51004d00320069003700e00420005a
:101390008e099000808f510060003200e004200030
:1013a0008e089000808f500005003c00d004200083
:1013b0000e099000800f51002e0032005c003700b3
:1013c000f00420008e099000808f51005000320000
:1013d000300520008e089000808f500049003200b8
:1013e0005300370050c6b3000000fb0070079800a0
:1013f000100620007e019000800f51000500320091
:1014000050072000fe019000808f51000400320040
:101410004700370010c0b300604798004400370011
:1014200000c7b3000000fb0060079800c006200062
:10143000ee009000808f500008003200e00620008f
:101440006e019000800f510001003200380037001b
:1014500060c0b300604798003500370070c0b3002b
:10146000604798003200370020c0b3006047980002
:101470002f00370000c7b3000000fb0050079800a2
:1014800020072000de019000808f5100050032000f
:1014900090072000de009000808f50000400320092
:1014a0002300370030c0b3006047980020003700a9
:1014b00050c0b300604798001d00370050c6b3000d
:1014c0000000fb0040079800000720004e0190003c
:1014d000800f51000500320050072000ce0190001f
:1014e000808f5100040032001100370040c0b3006b
:1014f000604798000e00370080c0b3006047980036
:101500000b00370090c0b300604798000800370018
:1015100000c1b300604798000500370010c1b30058
:10152000604798000200370020c1b3006047980070
:101530002e409000dce8b70010c0b300e4e8b7002c
:101540003e409000dde8b70010c0b300e4e8b7000b
:101550004e409000dee8b70010c0b300e4e8b700ea
:101560007e409000e0e8b70010c0b300e4e8b700a8
:101570006e409000e1e8b70010c0b300e4e8b700a7
:101580005e409000e2e8b70010c0b300e4e8b700a6
:1015900060002000000f78005e4090000000fb001b
:1015a0004480de000000fb006a00b9008000780083
:1015b0005e4090000000fb006f0060000080400073
:1015c0001e0f40005e4090000000fb004480de00e3
:1015d0000000fb006a00b900800078005e409000c7
:1015e0000000fb006f00600042002000811f7800b7
:1015f000110009000200d80001017800cf00780036
:10160000008040001e0f40006e4090000000fb0074
:101610006101b9000080eb008080eb000201400016
:1016200083814800120f9800230f980010012000ba
:10163000010020001e099000ae099000800f5100ab
:10164000818f590024003e001e089000ae089000d3
:101650000060010020003700100037000f00370045
:101660001100370013003700140037000e00370058
:101670001500370016003700170037001600370036
:101680001500370014003700130037001200370030
:1016900011003700010037000d0037009e00780070
:1016a000638f40000c0037001e017800660f410078
:1016b000090037001e0fe800070037009e01780080
:1016c000648f4100040037001e8fe80002003700dd
:1016d0001e007800650f40007e4090000000fb0077
:1016e0004480de000000fb006a00b9008000780042
:1016f0007e4090000000fb006f0060000080400012
:101700001e0f40001e00780072002000110009002a
:101710000200d8008000fd00000f78001e00780055
:10172000dfe8b70010c0b300e4e8b700020007002c
:101730000080fa00000006000000fa002100070007
:101740007162200091407800c0cfb30000c06000fb
:1017500027e6b700e0468000203188007162200053
:1017600091407800c0cfb30000c060000004a0002a
:1017700027e6b700f0468000203188007162200023
:1017800091407800c0cfb30000c060000014a000fa
:1017900027e6b700004780002031880027c6bf0039
:1017a0003040b30027e6b7001047800020318800a2
:1017b00027a6a9000040eb00e4e8b7000080fa008b
:1017c000000006000000fa000500fc00570520009c
:1017d000373b8800a80a2000383b880027a6a800cd
:1017e00000000000000000000080fa000000060079
:1017f0000200fa00004f780000c0eb009e4f10007e
:1018000002003a00b0c3b300004f7800c0c3b30079
:101810009e4f100002003a000040eb00004f78009d
:101820001e80fb00a2002000110009000280d800e9
:101830000080fb004400dd00804078001e80fb003b
:10184000a2002000811f7800110009000280d8004a
:101850000001780001007800cf00780000c070001f
:10186000dce8b70010c0b300e4e8b7000080fa007d
:10187000000006000200fa00004f780000c0eb00f4
:101880009e4f100002003a00b0c3b300004f780032
:10189000c0c3b3009e4f100002003a000040eb00ae
:1018a000004f78001e80fb00a200200011000900fc
:1018b0000280d8000080fb004400dd0080407800fa
:1018c0001e80fb00a2002000811f7800110009008b
:1018d0000280d8000001780001007800cf00780075
:1018e00000c07000dde8b70010c0b300e4e8b70046
:1018f0000080fa00000006000200fa00004f7800a5
:1019000000c0eb009e4f100002003a0070c1b3000f
:10191000004f780080c1b3009e4f100002003a00d3
:101920000040eb00004f78001e80fb00a20020006a
:10193000110009000280d8000080fb004400dd0097
:10194000804078001e80fb00a2002000811f7800ec
:10195000110009000280d800000178000100780021
:10196000cf00780000c07000dee8b70010c0b30000
:10197000e4e8b7000080fa00000006000800fa0062
:10198000e2c8bf000080fb004400de000080fb00d6
:101990006a00b90080007800e2c8bf000080fb0048
:1019a0006f0060000080400030079800e1c8bf0071
:1019b0000080fb004400de000080fb006a00b900ec
:1019c00080007800e1c8bf000080fb006f0060006d
:1019d0000080400020079800e0c8bf000080fb00a6
:1019e0004400de000080fb006a00b900800078003f
:1019f000e0c8bf000080fb006f0060000080400076
:101a0000100798003e009000c200de003e009000eb
:101a100000804000660f40002e0090008000e9002a
:101a20002066280000804000104078000000fb0085
:101a30001e0f40001e0090001e0f40003e00900050
:101a4000630060000000e00004003a002e009000f7
:101a5000e20f500001003e001e0fe9001e0078005a
:101a600072002000110009000280d8008000fd00f3
:101a7000000f78001e007800dfe8b70010c0b30048
:101a8000e4e8b7000080fa00000006000800fa0051
:101a900060479800e1c8bf000080fb004400de0002
:101aa0000080fb006a00b90080007800e1c8bf0038
:101ab0000080fb006f00600000804000100798006d
:101ac000e2c8bf000080fb004400de000080fb0095
:101ad0006a00b90080007800e2c8bf000080fb0007
:101ae0006f00600000804000000f78001e00900032
:101af0008000e900e0662800008040001040780087
:101b00000000fb00200798001e009000e20f50002c
:101b100007003a009e007800638060000000e0004b
:101b200003003a002e0090000000e8002007980013
:101b30006e4090000004e00002003a002e00900089
:101b4000604798006e4090008080fb002e0090005f
:101b5000808f50000200360010c0b300604798002c
:101b60006e4090000080fb00a200200011000900e0
:101b70000280d8000080fb004400dd008040780037
:101b80006e4090000080fb00a2002000811f7800c2
:101b9000110009000280d8000001780001007800df
:101ba000cf00780000c07000e0e8b70010c0b300bc
:101bb000e4e8b7000080fa00000006000200fa0026
:101bc000004f78001e04e00002003a00c0c0b300dd
:101bd000004f7800c0c0b3009e4f100002003600d6
:101be00010c0b300004f78001e80fb00a200200050
:101bf000110009000280d8000080fb004400dd00d5
:101c0000804078001e80fb00a2002000811f780029
:101c1000110009000280d80000017800010078005e
:101c2000cf00780000c07000e1e8b70010c0b3003a
:101c3000e4e8b7000080fa00000006000200fa00a5
:101c4000004f780000c0eb009e4f100002003a00e9
:101c500030c6b300004f780040c6b3009e4f10005e
:101c600002003a000040eb00004f78001e80fb00ad
:101c7000a2002000110009000280d8000080fb00b3
:101c80004400dd00804078001e80fb00a2002000a0
:101c9000811f7800110009000280d800000178003f
:101ca00001007800cf00780000c07000e2e8b700c3
:101cb00010c0b300e4e8b700e0c8bf000080fb003c
:101cc0004400de000080fb006a00b900804078001c
:101cd000e0c8bf006f40600000c040006bff07001d
:101ce0000080fa00000006000000fa000000eb008f
:101cf0001019880050f0210020198800400e28009b
:101d0000001988005000200040198800c642a80031
:101d1000c662a8002ca3a9002c83a90050002000b3
:101d2000401988000000eb00801988008025200001
:101d3000b047880040062000c047880010c0b300ac
:101d4000f4e8b7000040eb00fae8b7000040eb0011
:101d5000fee8b7000080fa00000006000600fa0066
:101d6000f4c8bf000080fb00200798002e00900000
:101d7000e20f50008a003200ae009000e28f500067
:101d800004003c002e029000e10f520008003200d7
:101d90008f0037002e009000e30f50002800320023
:101da000ae009000e48f50007d00320088003700c4
:101db00020c3bf00614060000004e000fcff32006f
:101dc0000018800001002000008fbe009e007800f7
:101dd00040ce20000009b8001e0078006000b90065
:101de00003027800000242009e00900040ce2000d6
:101df0000088b9000002420084017800461add0024
:101e00004a10de0000007200ca18de00008fbe001b
:101e1000a28920001e00780011c0b30070000700e6
:101e200000c2b3009ee8b7004000200040198800bf
:101e3000f4c8bf000040e800f4e8b70066003700cf
:101e400020c3bf00614060000004e000fcff3200de
:101e50000018800001002000008fbe00e1478000d4
:101e6000e04780004400de0000805000e04788002a
:101e70009e007800e047800000804000e047880036
:101e8000e04780004400de0001002000008fbe001b
:101e900000c2b300b1e8b700490107000004e00048
:101ea000050032002a01070001002000008fbe005b
:101eb000d0c4b300b1e8b700c04780000000e9001b
:101ec000c0478800c0478000e10f40000d003a0085
:101ed00040062000c0478800fac8bf000004a200e6
:101ee000fae8b700fac8bf000004e00003003200bf
:101ef00030c4b300afe8b7000200370060c4b300dd
:101f0000afe8b700fac8bf000004e00005003200e7
:101f1000a28a20001e00780031c0b3003000070004
:101f2000190037009e00780090002000000ab800d9
:101f30001e0078006000b900050178000001410032
:101f40001e0090006900b900000141008202780083
:101f5000048fbe001e00be005200200003002000bf
:101f60006ff90700008fbe00001420000100200060
:101f70001e0f40005e974800a28a20001e007800d5
:101f800031c0b3001600070050002000401988003f
:101f9000f4c8bf000040e800f4e8b7000e003700c6
:101fa000b04780000000e900b0478800b0478000db
:101fb000e10f400008003a0080252000b04788006b
:101fc000f4c8bf000040e800f4e8b70002003700a2
:101fd00010c0b300f4e8b7000080fa00000006006b
:101fe0000800fa001007980041479800320798004f
:101ff0000040eb00004f7800070037001e80fb0018
:10200000800078003e0090008080400000c2b30055
:10201000804878001e4fe80040c0b3009e4f10007b
:10202000f6ff36000040eb00004f78009e80fb007a
:102030004e4090000000fb00808f50000c003a00e2
:10204000be00900000c3b300804878003e009000be
:102050000000e80030079800be009000e0c2b30026
:10206000804878003e0090000000e80030079800ab
:102070001e4fe8001e009000823e20001100090063
:102080000200d800104798001e4090008000fb001e
:10209000803e20000088b900800078001e0090007b
:1020a00001005000100798001e4090000004e0005e
:1020b000090032001e40900002c3b300824040007d
:1020c0003e009000014878003e0090000000e800cb
:1020d000300798000b0037001e80fb00ce409000b8
:1020e0008100fb00810f500006003500be0090000b
:1020f00000c3b300804878003e0090000000e80074
:10210000300798001e80fb00ce4090008100fb004d
:10211000810f500006003a00be009000e0c2b300fc
:10212000804878003e0090000000e80030079800ea
:102130001e4fe8001e00900042062000110009001a
:102140000200d800104798001e4090008000fb005d
:10215000400620000088b900800078001e00900032
:1021600001005000100798001e4090000004e0009d
:10217000090032001e40900002c3b30082404000bc
:102180003e009000014878003e0090000000e8000a
:10219000300798000b0037001e80fb00ce409000f7
:1021a0008100fb00810f500006003500be0090004a
:1021b00000c3b300804878003e0090000000e800b3
:1021c000300798001e80fb00ce4090008100fb008d
:1021d000810f500006003a00be009000e0c2b3003c
:1021e000804878003e0090000000e800300798002a
:1021f0001e4fe8001e009000a20020001100090000
:102200000200d800104798001e4090000000fb001c
:102210006a00b900800078001e00900001005000a4
:10222000100798001e4090000004e00009003200f2
:102230001e40900002c3b300824040003e00900068
:10224000014878003e0090000000e8003007980048
:102250000b0037001e80fb00ce4090008100fb0089
:10226000810f500006003500be00900000c3b3008f
:10227000804878003e0090000000e8003007980099
:102280001e80fb00ce4090008100fb00810f5000bb
:1022900006003a00be009000e0c2b300804878001b
:1022a0003e0090000000e800300798001e4fe80054
:1022b0001e0090000000e000090032001e009000a7
:1022c00002c3b300824040003e0090000148780005
:1022d0003e0090000000e800300798000b00370037
:1022e0001e80fb00ce4090008100fb00810f50005b
:1022f00006003500be00900000c3b300804878009f
:102300003e0090000000e800300798000080fa00ce
:10231000000006000200fa00e04780004400de00f2
:10232000000f78001e0078004800de000080fb00ef
:102330008000eb00800407001e0078000080fb0096
:10234000110020007c0407000080fa000000060055
:102350000200fa000000eb0098040700000f78006c
:102360001e007800c800dd0000f02f00008f600024
:10237000100020009104070080007800f00f20007a
:10238000008060001e0f7000e03d20009e0f1000d6
:1023900002003600a00f2000000f78001e00780019
:1023a0000080fa00000006000000fa00fec8bf002e
:1023b0000004a200fee8b7000080fa00000006005a
:1023c0000000fa00fec8bf000080fb000080fa0099
:1023d000000006000000fa0000c1b30004e9b700e5
:1023e00010c0b30000e9b70020002000304888008a
:1023f000408b20001048880010c0b3000ae9b700e5
:102400000080fa00000006000000fa0025c9bf00a5
:102410000004a20025e9b70025c9bf000004e000c0
:102420000200320010c0b3000ae9b7000080fa00d1
:10243000000006000000fa0025c9bf000000fb00f4
:102440000080fa00000006000000fa000ac9bf0080
:102450000040e8000ae9b7000ac9bf00e64f500093
:102460000200360010c0b3000ae9b7000080fa008d
:10247000000006000200fa0025c9bf000004e000c9
:10248000360032000ac9bf00e34f50001a003e0078
:102490000ac9bf000080fb0080004000a067280040
:1024a0000080400010407800004f780006003700a0
:1024b0009e80fb00408b20008080400000c2b30063
:1024c000804878001e4fe8001e81fb000ac9bf004b
:1024d0000080fb00000040008000e800a0672800aa
:1024e00000804000104078000000fb00800f510089
:1024f000efff3500190037000ac9bf000080fb005c
:1025000080004000a0672800008040001040780054
:10251000004f7800060037009e80fb00408c2000b2
:102520008080400000c2b300804878001e4fe80061
:102530001e81fb000ac9bf000080fb0000004000b4
:102540008000e800a067280000804000104078006c
:102550000000fb00800f5100efff35000080fa0003
:10256000000006000600fa002047980025c9bf00b9
:102570000004e0009000320092fc07000ac9bf008e
:102580000080fb00200798002e009000e30f500011
:102590003a0032002e009000e30f500007003c008c
:1025a0002e009000e10f50000e0032002e0090002f
:1025b000e10f50001e003c007e0037002e0090000e
:1025c000e50f5000540032002e009000e50f50003f
:1025d0003d0035002e009000e60f500062003200f2
:1025e00074003700dec8bf000080fb004400de003e
:1025f0000080fb006a00b90080407800dec8bf00a0
:102600006f40600000c04000004f78002e409000f6
:102610000004e000020032001e4fe8000100370015
:102620001e4fe9001e407800b3fc07006100370030
:10263000ddc8bf000080fb004400de000080fb001e
:102640006a00b90080407800ddc8bf006f406000bc
:1026500000c04000004f78002e4090000004e000d1
:10266000020032001e4fe800010037001e4fe90053
:102670001e4078007ffc07004e003700dcc8bf001a
:102680000080fb004400de000080fb006a00b9000f
:1026900080407800dcc8bf006f40600000c0400090
:1026a000004f78002e4090000004e000020032004d
:1026b0001e4fe800010037001e4fe9001e40780061
:1026c0004bfc07003b003700e1c8bf000080fb0067
:1026d0004400de000080fb006a00b9008040780002
:1026e000e1c8bf006f40600000c04000004f7800ac
:1026f0002e4090000004e000020032001e4fe8006f
:10270000010037001e4fe9001e4078002bfd070036
:102710009afc070027003700e0c8bf000080fb00dc
:102720004400de000080fb006a00b90080407800b1
:10273000e0c8bf006f40600000c04000004f78005c
:102740002e4090000004e000020032001e4fe8001e
:10275000010037001e4fe9001e407800cbfc070047
:1027600086fc070013003700e2c8bf000080fb00b2
:102770004400de000080fb006a00b9008040780061
:10278000e2c8bf006f40600000c04000004f78000a
:102790002e4090000004e000020032001e4fe800ce
:1027a000010037001e4fe9001e40780023fd07009e
:1027b00072fc0700e0fb07000080fa000000060042
:1027c0000200fa0000c9bf000080fb00000f780083
:1027d0001e007800e30f50003a0032001e0078001f
:1027e000e30f500007003c001e007800e10f50008e
:1027f0000e0032001e007800e20f50001800320078
:10280000610037001e007800e50f50001400320010
:102810001e007800e50f5000040035001e0078000f
:10282000e60f500046003200570037003048800065
:102830000000e00004003200304880000000e900a1
:10284000304888005200370000c9bf000040e8004f
:1028500000e9b70020002000304888004c00370015
:1028600021c9bf000004e00049003a001048800080
:102870001040780020e9b70030c0b30021e9b7006c
:10288000104880000000e8001048880004c9bf001c
:102890000040e90004e9b70004c9bf000004e000fb
:1028a00004003a0000c9bf000040e80000e9b7009a
:1028b0003700370000c9bf000040e90000e9b70059
:1028c0003300370021c9bf000004e00030003a00a7
:1028d00000ccb30020e9b70060c0b30021e9b70025
:1028e00000c1b30004e9b700404880000000e900df
:1028f0004048880040488000e10f40000500320059
:1029000024c9bf000004a20024e9b70000e22400ab
:1029100040488800fef8070024c9bf000004e0001a
:1029200001003200d3fe0700408c200010488800d0
:1029300000c9bf000040e80000e9b70014003700fc
:1029400021c9bf000004e00011003a0050c0b300ec
:1029500021e9b7000040eb0020e9b70010c0b30048
:1029600000e9b70000c1b30004e9b70024c9bf0003
:102970000004e00001003200befe0700408b200092
:1029800010488800020037000040eb0000e9b70063
:102990000080fa00000006000400fa0021c9bf0010
:1029a0000080fb006101b9000080eb008080eb003b
:1029b0000201400083814800028fbe0070042000a5
:1029c000010020001e01be00800f5100818f5900c0
:1029d000bb003e001e00be00006001004700370043
:1029e000500037005c003700670037007100370087
:1029f0007b003700b2003700b1003700b00037006d
:102a0000af003700ae003700ad003700ac00370034
:102a1000ab003700aa003700a9003700a800370034
:102a2000a7003700a6003700a5003700a400370034
:102a3000a3003700a2003700a1003700a000370034
:102a40009f0037009e0037009d0037009c00370034
:102a50009b0037009a003700990037009800370034
:102a60009700370096003700950037009400370034
:102a70009300370092003700910037009000370034
:102a80008f0037008e0037008d0037008c00370034
:102a90008b0037008a003700890037008800370034
:102aa0008700370086003700850037008400370034
:102ab0008300370082003700810037008000370034
:102ac0007f0037007e0037007d0037007c00370034
:102ad0007b0037007a0037004b0037005500370085
:102ae000490037005b0037004700370061003700be
:102af00045003700670037006e003700f04880005f
:102b00000000e00004003200f04880000000e9000e
:102b1000f04888006c0037000040eb0021e9b70066
:102b200069003700f03b280000308800f03f2000ab
:102b30001030880010002000603088000000eb009a
:102b40002030880000c4b30021e9b700007d2000d8
:102b5000f04888005c00370010c0b30021e9b700de
:102b6000a0002000f04888001000200020308800dd
:102b700020c9bf000080fb004030880020c9bf0092
:102b8000d30207005000370010c0b30021e9b7009e
:102b900060092000f04888000000eb002030880029
:102ba0001000200040308800d0c0b300c8020700e9
:102bb0004500370010c0b30021e9b70060092000cc
:102bc000f04888000000eb00203088002000200042
:102bd00040308800d0c0b300bd0207003a00370083
:102be00010c0b30021e9b700a0002000f048880021
:102bf0000000eb002030880020c9bf000080fb00ef
:102c00004030880030003700f04880000000e000cd
:102c100004003200f04880000000e900f04888001d
:102c20002900370021c9bf000040e80021e9b700b2
:102c30002500370021c9bf000040e80021e9b700a6
:102c4000a0002000f0488800c00320004030880029
:102c50001d00370021c9bf000040e80021e9b7008e
:102c6000a0002000f0488800c0002000403088000c
:102c70001500370021c9bf000040e80021e9b70076
:102c800060092000f04888001000200040308800d3
:102c90000d00370021c9bf000040e80021e9b7005e
:102ca00060092000f0488800600020004030880063
:102cb000050037000040eb0021e9b70002003700b3
:102cc0000040eb0021e9b7000080fa000000060098
:102cd0000400fa000040eb0022e9b7000080eb009e
:102ce000601988005e030700600307001b030700ec
:102cf00009020700680207003c03070020c0b30078
:102d000021e9b7001b010700f7fb07008e00070051
:102d10004cf90700000037001fff07000ffc0700f9
:102d2000410307000004e000fbff32001c01070024
:102d300022c9bf000080fb00100798001e00900011
:102d4000e10f50000b0032001e009000e20f500017
:102d5000060032001e0090000000e000010032007a
:102d6000060037008a0007000600370094fe0700bf
:102d70000400370086010700020037000040eb0026
:102d800022e9b70030478000680060000000e000e2
:102d90002a003200a7fd07000004e00020003a00ee
:102da00022c9bf000040e80022e9b70022c9bf00e5
:102db000e24f5000020036000040eb0022e9b7006d
:102dc00022c9bf000080fb00000f78001e007800c1
:102dd000e10f50000b0032001e007800e20f50009f
:102de000060032001e0078000000e0000100320002
:102df000060037005d0007000600370075fd07007c
:102e00000400370057010700020037000040eb00c4
:102e100022e9b70040c0b30021e9b7000300370042
:102e200089fd070001003700dd0007003047800002
:102e3000680060000000e000fbff3a0022c9bf000c
:102e4000e24f500026003a003047800061006000e9
:102e50000000e000070032006bfd070001003700b2
:102e6000cf00070030478000610060000000e000f4
:102e7000fbff3a006ffd07000004e000180032007d
:102e800030478000620060000000e000080032006f
:102e900010c0b300b3fd070001003700c0000700f9
:102ea00030478000620060000000e000fbff3a0055
:102eb00030478000640060000000e000080032003d
:102ec0000040eb00a7fd070001003700b400070039
:102ed00030478000640060000000e000fbff3a0023
:102ee00022c9bf00e14f50008bff3a0030478000fd
:102ef000620060000000e000070032002afd0700c9
:102f000001003700a6000700304780006200600023
:102f10000000e000fbff3a003047800064006000e2
:102f20000000e0007cff3200fafc070001003700df
:102f30009b00070030478000640060000000e00054
:102f4000fbff3a0074ff37000000fa0030c0b30006
:102f50000de9b70000c2b3000ce9b700007d200006
:102f6000904888000080fa00000006000000fa0087
:102f700090c0b3000de9b7000040eb000ce9b700ca
:102f800040012000904888000080fa000000060000
:102f90000200fa000dc9bf000080fb00000f78009e
:102fa0001e007800e60f50004a0032001e00780034
:102fb000e60f50000a003c001e007800e40f5000ad
:102fc000110032001e007800e40f50001b003c008e
:102fd0001e007800e30f50002a0032006100370025
:102fe0001e007800e80f5000140032001e00780028
:102ff000e80f5000040035001e007800e90f500073
:103000004800320057003700a04880000000e00070
:1030100004003200a04880000000e900a0488800b9
:10302000520037000dc9bf000040e8000de9b700ad
:1030300010002000a04888004c0037007048800035
:103040001040780020e9b70030c0b30021e9b70094
:1030500070488000610040007048880010c9bf00bf
:103060000040e90010e9b70010c9bf000004e0000b
:103070003e003a000dc9bf000040e8000de9b7006e
:103080003a00370050c0b30021e9b7000040eb0020
:1030900020e9b7000cc9bf000080fb0080004000a1
:1030a00000852000008040001000780070488800f3
:1030b0000cc9bf000040e8000ce9b70000c1b30034
:1030c00010e9b7000dc9bf000040e8000de9b700e6
:1030d0002600370000ccb30020e9b70060c0b30081
:1030e00021e9b7000cc9bf000080fb008000400050
:1030f00000852000008040001000780070488800a3
:103100000cc9bf000040e8000ce9b70000c1b300e3
:1031100010e9b7000dc9bf000040e8000de9b70095
:1031200012003700904880000000e90090488800b5
:1031300090488000e10f40000c003a000cc9bf002d
:10314000ff4f5000020036000040eb000ce9b700d2
:10315000007d20009048880030c0b3000de9b70022
:103160000200370030c0b3000de9b7000080fa005c
:10317000000006000000fa0000c8b300e8e8b7004d
:1031800000c8b300e9e8b70000c8b300eae8b70038
:1031900000c8b300ebe8b7000080fa0000000600aa
:1031a0000000fa00d4c2bf000044b2000004e000f6
:1031b0000c003a00e8c8bf000040e800e8e8b700ab
:1031c000818e20009140780040c9b30080cf50002c
:1031d0000f00360040c9b300e8e8b700e608a800d1
:1031e0000b003700e8c8bf000040e900e8e8b7007e
:1031f000818e200091407800b0c6b30080cf50008f
:1032000003003e00c0c6b300e8e8b700e608a90026
:10321000d4c2bf0001c8b300014060000004e00058
:103220000c003a00e9c8bf000040e800e9e8b70038
:10323000918e20009140780040c9b30080cf5000ab
:103240000f00360040c9b300e9e8b700e628a8003f
:103250000b003700e9c8bf000040e900e9e8b7000b
:10326000918e200091407800b0c6b30080cf50000e
:1032700003003e00c0c6b300e9e8b700e628a90095
:10328000c2c2bf0001c8b300014060000004e000fa
:103290000c003a00eac8bf000040e800eae8b700c6
:1032a000a18e20009140780040c9b30080cf50002b
:1032b0000f00360040c9b300eae8b700e648a800ae
:1032c0000b003700eac8bf000040e900eae8b70099
:1032d000a18e200091407800b0c6b30080cf50008e
:1032e00003003e00c0c6b300eae8b700e648a90004
:1032f000d5c2bf000042b2000004e0000c003a005a
:10330000ebc8bf000040e800ebe8b700b18e20003a
:103310009140780040c9b30080cf50000f003600c4
:1033200040c9b300ebe8b700e668a8000b0037001f
:10333000ebc8bf000040e900ebe8b700b18e200009
:1033400091407800b0c6b30080cf500003003e002b
:10335000c0c6b300ebe8b700e668a9000080fa0039
:10336000000006000000fa0000c1b3001ae9b7002f
:1033700010c0b30016e9b70020002000e048880024
:1033800040892000c04888000080fa000000060044
:103390000200fa0016c9bf000080fb00000f780091
:1033a0001e007800e30f50003a0032001e00780043
:1033b000e30f500007003c001e007800e10f5000b2
:1033c0000e0032001e007800e20f5000180032009c
:1033d0004d0037001e007800e50f50001400320049
:1033e0001e007800e50f5000040035001e00780034
:1033f000e60f50003600320043003700e0488000fe
:103400000000e00004003200e04880000000e90015
:10341000e04888003e00370016c9bf000040e800c1
:1034200016e9b70020002000e04888003800370087
:1034300021c9bf000004e00035003a00c048800008
:103440001040780020e9b70030c0b30021e9b70090
:10345000c04880000000e800c04888001ac9bf00ca
:103460000040e9001ae9b7001ac9bf000004e000f3
:1034700004003a0016c9bf000040e80016e9b70092
:103480002300370016c9bf000040e90016e9b70065
:103490001f00370021c9bf000004e0001c003a00f3
:1034a00000ccb30020e9b70060c0b30021e9b70049
:1034b00000c1b3001ae9b700408a2000c048880064
:1034c00016c9bf000040e80016e9b7001000370039
:1034d00021c9bf000004e0000d003a0050c0b30055
:1034e00021e9b7000040eb0020e9b70010c0b300ad
:1034f00016e9b70000c1b3001ae9b70040892000ff
:10350000c0488800020037000040eb0016e9b70011
:103510000080fa00000006000000fa00d582a80032
:10352000d382a900e4c2a900e502a900e4e2a80050
:103530000080fa00000006000600fa00000f780084
:103540001107980038000700d582a900200020004c
:10355000130107001d010700401380001e009000aa
:103560004800de000080fb000d0107001701070086
:10357000401380001e0090000080fb00080107003f
:1035800012010700401380001e00780004010700ac
:103590000e01070040138000d582a8006400470098
:1035a0002a0007004e409000614060000004e000e7
:1035b000faff3a000080fa00000006000400fa005a
:1035c00010079800d582a90030002000f400070001
:1035d000fe000700401380001e0090004800de003f
:1035e0000080fb00ee000700f80007004013800099
:1035f0001e0090000080fb00e9000700f3000700b8
:10360000401380000000eb00e5000700ef0007001a
:1036100040138000000f7800d582a8001e007800bb
:103620000080fa00000006000000fa00d582a90020
:1036300060002000da000700e4000700401380006b
:10364000d582a8000080fa00000006000200fa00ff
:10365000881f780000047800d582a900500020005f
:10366000cf000700d9000700401380000000eb00e6
:10367000cb000700d500070040138000004f780002
:10368000d582a8001e4c7800080078004f0478000e
:103690000080fa00000006000000fa00dea2a90087
:1036a000de82a800c0002000c01188000000eb00ee
:1036b000801188000000eb009011880031e2a80022
:1036c0003342a80087c0a9000080fa00000006006d
:1036d0000200fa00004f780033c2bf006240600071
:1036e0000004e000fcff3a001e00fb00a01188006f
:1036f0000080fa00000006000200fa0087c0bf0048
:103700000044b2000004e00003003200100020007a
:10371000000f7800020037000000eb00000f780077
:103720001e0078000080fa00000006000200fa0087
:1037300087c0bf000044b2000004e000fcff32007c
:10374000b0118000004f780087c0a9001e00fb0068
:103750000080fa00000006000400fa0020479800ec
:103760002e409000004f780030c6b3009e4f1000ee
:10377000060036001e80fb004206200011000900f2
:103780000280d8000043b000d1ff07009e417800be
:103790001e80fb0042062000110009000280d800b4
:1037a0008080fb00400620000088b90000c0510066
:1037b000004f780090c0b3009e4f10000600360006
:1037c0001e80fb00a2002000110009000280d8002a
:1037d0000043b000beff07009e4178001e80fb0042
:1037e000a2002000110009000280d8000080fb0028
:1037f0006a00b90000c05100004f78001e407800f8
:103800000043b000b2ff07000080fa00000006008d
:020000040000fa
:10381000940800002000000002000000566f6c00b9
:10382000203d2000202020002020560020202000c5
:1038300020546d0070203d0020202000202020001a
:103840004320200020200000f40800000c000000ad
:1038500000000000500800004400000002000000ca
:1038600060837000838083009083a00083b0830016
:10387000c083d00083e08300f08300008470850063
:10388000408450008460840040852000853085009d
:1038900070849000845085006085a00085b085000c
:1038a000a084b000848085009085c00085d085000c
:1038b000e085f00085408600518600000c0900007c
:1038c0000a00000000000000e60800000e000000f2
:1038d000000000001e0900000400000000000000bd
:1038e000220900000200000000000000b4080000ef
:1038f00020000000020000002020200020202000e6
:103900002020200020202000202020002020200037
:103910002020200020202000202020002020200027
:1039200020200000d4080000120000000000000069
:103930002409000002000000020000000000000056
:10394000000900000c000000000000001609000043
:0c39500008000000000000000000000063
:020000040000fa
:10395c000000fa000000eb00001388000000eb00f0
:10396c001013880062a2a8000000eb00201388004e
:10397c006342a9006302a90062c2a8006322a800e6
:10398c009820a9008820a90061e2a8000080fa0014
:10399c00000006000200fa00000f780060c2bf00b1
:1039ac00624060000004e000fcff3a001e0078005a
:1039bc00401388000000eb000080fa0000000600b5
:1039cc000000fa0060c2bf00614060000004e0002b
:1039dc00fcff32000000eb000080fa000000060043
:1039ec000000fa00f02f200010088800510a200077
:1039fc0091407800f0c8b30000c0600001c5b3006e
:103a0c0001407000a5e0b7000001280020088800e4
:103a1c008460a9000080fa00000006000200fa0091
:103a2c0084c0bf00684060000004e0000400320065
:103a3c008460a90010002000000f780002003700fd
:103a4c000000eb00000f78001e0078000080fa00e8
:103a5c00000006000000fa000080fa0000000600da
:103a6c000000fa002174200062042000730520007d
:103a7c00824878008348780042c7a8000080fa008a
:103a8c00000006000000fa002174200062042000ef
:103a9c0073052000824878008348780042c7a9004b
:083aac000080fa000000060092
:020000040000fa
:043ab4000000fe0010
:00000001FF
