:020000040000fa
:080000000002040000000000f2
:020000040000fa
:100400008f122100007f2200000188000000000000
:100410000c00070020fa2100010020001100070055
:10042000000020000000e000020032000000020096
:10043000000000000a1f0200000000000040da0077
:100440000000fe004440a900c00920000000e000b8
:100450000300320000002000a00188004440a800f2
:100460000000060091018800800078000000eb0089
:1004700015003700e280400032a0b4009101ba00bc
:10048000e280400032a0b4009102ba00e280400055
:1004900032a0b4000002eb00472bde00f507b200eb
:1004a000602ce10004003a000059eb008301e900f0
:1004b000fdff3e00040037006128e100010032002a
:1004c0000082eb00040007001101ba000200e00006
:1004d000e8ff3a00000006003159ba008301e90044
:1004e0000c0032002159ba008301e90008003200f3
:1004f0000400e00003003a00e280400032a0b400b3
:10050000f5ff370011d9ba008301e900faff3a007c
:100510008100e800e180400032a0b4000000060045
:1005200044030400000000006e030400000000000b
:100530001e0c040000000000000004000000000089
:10054000889fbe00e30440000900a100808f540092
:100550004a003600e38f540001003e0049002000ad
:10056000f24880000200e0000200320082007800c1
:100570000c0037000192200003003700908f5400d8
:10058000230036008080e800110078000000e000c1
:10059000faff3a000f003700908f54001c0036001d
:1005a0008080e800110078000000e000faff3a00c7
:1005b000120178000192200003003700908f540050
:1005c000130036008080e80011007800820f500090
:1005d000faff3a00e8488000890f5400010031001a
:1005e0000904780008007800530007000000e000cc
:1005f00004003a00890f5400200032000804d100a2
:10060000f5ff37000818780052000700d4ff3700c4
:10061000110178009201780064805100890f500028
:1006200003003100120090008008780007003700b6
:1006300009004100800878009201900013009800a2
:1006400011007800128814000909780091007800e0
:100650000100e00005003200110090000000e00001
:10066000020032000180e800010037000000eb00ca
:10067000f04888000280e800010037000000eb002d
:100680004f04be0000000600889fbe008004780072
:100690000100780002047800890178001100200030
:1006a00060000700880f5000010032008004eb005a
:1006b000090078004f04be00000006000000fa00a8
:1006c0004fb99700e881570001892000403420008d
:1006d000a90007000080fa0000000600881f7800cb
:1006e000020478005d010700080040004f04780014
:1006f000000006000000fa00881f7800000478005f
:100700003fb99700ea81570080007800e03620006a
:1007100099000700800078000000e000020035002a
:100720000040eb0000f47800010078004f047800ee
:100730000080fa00000006000000e0000300340022
:10074000eb050700e10f400001003a000000eb005c
:10075000000006000000e000310032008080e90067
:1007600091027800e38f52002d0036000508a300a7
:100770002b003a00024980000200e0000200320033
:10078000828f50000400310002087800014988007f
:100790001600370003017800920190000300e0008a
:1007a00002003200818f5100faff390012027800f6
:1007b00004004100808f500019003900810f500063
:1007c00003003a0005094200820078000700370064
:1007d0000300e0000300320005804000808f5100dc
:1007e0000f0039009300980011019800110190004a
:1007f0000200e0000a00320011804000820f500029
:1008000007003a00e09120000008eb001100900082
:1008100011017800900841001000900090009800ad
:1008200000000600889fbe008a9fbe008c9fbe000d
:100830008e1f780081067800830478000006780017
:100840000288b900000778000000e00002003a00ca
:1008500000017800420037000d00e0004000320047
:1008600000057800c900900069009000808f50005a
:100870000400390009007800ff0007000000e000d4
:1008800029003500004020001900600003003a00f4
:100890000a047800800578000b0037000a01780010
:1008a000a10020000c0078003601070080057800c8
:1008b0000000e00002003a000a047800020037005d
:1008c0000c0050000004e800c9019000690090008d
:1008d00003005000880f500002003100000478002f
:1008e0008005eb00080178008c0078000300780098
:1008f000da00070008064600080555004900900088
:1009000000004400c00498000b00e0000400320026
:1009100009007800250107000000e00002003a000d
:100920000a00e000cfff3a000080200019006000bc
:1009300002003200090078001c01070000c02000fe
:10094000190060000200320049009000e0049800a5
:100950000a005700110009000d80d800000178003e
:10096000020078004f0778004f06be004f05be001a
:100970004f04be00000006006200fa00889fbe001f
:100980008a9fbe000004be00020578008300780044
:1009900060f92f000f0040004101070088979f0079
:1009a00099979f000000eb00a09f9f009a45780058
:1009b0000b80fb000000ea00cf04de0050c2b30051
:1009c00080cf550002003200090478000100370092
:1009d0000904e9000800e0000b0034001f909700b4
:1009e000080178008a0078008f91970003000100c9
:1009f00090979f000000e000930032002f9897002e
:100a000000004400a09f9f000905450050c2b300ac
:100a100080cf5500040032000b04e000e3ff3a00f1
:100a20002f989700890037000000eb00809f9f00ff
:100a3000f0979f00e0979f00d0979f00c0979f007e
:100a4000b0979f00c09f9f0009003700e0902000f2
:100a5000008050000000400021902000e10078005c
:100a60004f98970001007000c09f9f000a05e800a2
:100a70001a4478008800fb00e09020000d01070078
:100a8000800078000000e000f0ff3a00a0c2b30050
:100a9000804f54000e003a00bf8897000180e900a3
:100aa000b08f9f0010007800b09f9f000000e00012
:100ab00005003d000000ea00b09f9f004f9897009e
:100ac0000020a000c09f9f000a05e800100037002a
:100ad000b19f9f0009003700bf989700f0ff2700e3
:100ae000808f5000040032006a08b9000000410005
:100af00003004000b09f9f000a05e8001a01fb00b8
:100b000003fd2f0003004100e90f5000f2ff360003
:100b1000e0c2b3009a4f1000040032000080eb00e6
:100b2000909f9f008a0478001c0037008a04e80028
:100b3000a0c2b300994f100007003a00bf88970089
:100b40000180e900b08f9f0010007800909f9f0007
:100b50008a84e800110037000000eb00909f9f009e
:100b6000090037009f989700f0ff2700808f500002
:100b7000040032006a08b900000041000300400090
:100b8000909f9f008904e8001901fb0003fd2f00de
:100b900003004100e90f5000f2ff360019447800cd
:100ba0008800fb0040912000c20007000000e00028
:100bb00002003a0000447800010037008904e80090
:100bc000a87f9f0080c6b300804f540004003a0005
:100bd000994f14000a003a006640500006003700a2
:100be000c0c6b300804f540005003a00994f14006e
:100bf00003003a0065404000a07f9f008904e800a0
:100c00000905e800cbfb2f008f8545001901fb008b
:100c100060f92f000f0040000084e8008b0178008d
:100c20008000780008007800ab0007000000e000ba
:100c300005003a008b00780008007800e901070001
:100c40000000e00059ff3d000080eb004f05be00b2
:100c50004f04be000080fa00000006008001eb0097
:100c60000200370061f079008301e800828f5100b3
:100c7000fcff3a0000000600889fbe0000047800d8
:100c8000c0019000600090008000eb00808f510058
:100c900039003900180178002000290000006100a7
:100ca000e20f500007003200002020000200e000a8
:100cb0000100350000202400000c71008080eb0052
:100cc0002d0037000100260001006100810f500057
:100cd00008003a0038009000808f5100050039006c
:100ce00008007800310007008080eb000000e00081
:100cf00021003a0000c020001800600017003a00f0
:100d0000a80490006002200008004000808f54007a
:100d100012003a000020200009fe07008000780041
:100d2000200498000000e00005003a002904980023
:100d3000490498000900e8003004980006003700d4
:100d40001860a000400498000020b0003004980013
:100d5000410c9800510c98006c020700280090008c
:100d600050049800380090006004980000002600ad
:100d7000180c70008000eb00010078004f04be00ea
:100d8000000006008001eb00040037008301e8004a
:100d900090cf1000040032000000e800828f510064
:100da000faff3a000000eb0000000600889fbe003a
:100db000000478000000e0000e003a008004780093
:100dc00088852000180078000000e0000400320050
:100dd000f6ff07000000e00001003d008084eb000a
:100de0000884e80080862000800f5400290032002b
:100df000f4ff3700000022001800600024003200d9
:100e0000a804900008003700090150003840900005
:100e10000000fb00890078004b0407000000e000a0
:100e2000130034008084440048009000808f5400f8
:100e3000f5ff390028009000400498001801780060
:100e400000c020000000610002003200a8009000f5
:100e500001003700b800900000002400000061008d
:100e60000a003200610498008004eb00090037009a
:100e7000280090004004980060049800500c9800ee
:100e80001890a0008084eb0002003700510c9800fd
:100e900080047800090078004f04be0000000600be
:100ea0000200fa00f1bf9f00010878000080fa00fc
:100eb00000000600040037000204e00001003a00d0
:100ec000000005000000e80010417800814f51004b
:100ed000f9ff3a0000000600889fbe008a1f7800d4
:100ee000000478000102780082447800030578004d
:100ef000e0c6b300804f5100d200320015003c0024
:100f00006b405000804f5100240032000a003c002a
:100f100070405000804f51000f013200654040008a
:100f2000804f51007400320050c2b300804f510016
:100f300020013a001c01370040c6b300804f510029
:100f40001b00320065404000804f510019013a00fb
:100f50001700370030c7b300804f5100fe00320049
:100f600007003c0064405000804f51006200320096
:100f70000040e800804f51000e013a00e7003700c2
:100f800050c7b300804f51005b0032006340400007
:100f9000804f510007013a00570037009180e90067
:100fa000010a7800780090009171780007013700fd
:100fb000a8609000c0c6b30080cf50000a003a007d
:100fc0009400780064805000000a78001000be0091
:100fd0004f89de00cf91de000002be0002037800e0
:100fe000820378001300370010c7b30080cf500091
:100ff00003003200a0c6b30080cf500006003a00c4
:101000009400780068805000000a78003002be002a
:101010002003be00070037001480e900000a7800b2
:101020001000780000027800cfa2de0005037800ef
:1010300086037800049cbe000694be00a860900061
:1010400080c6b30080cf50000e00320020c6b3002f
:1010500080cf500005003a000400fb00cf80de0086
:1010600001017800820178000a00370040c7b30010
:1010700080cf5000030032006640400080cf500017
:1010800006003a0004007800cf80de0001017800fd
:1010900082017800009cbe000294be003800be00b1
:1010a0002801be00e00f5000e08f5800e00f59000b
:1010b000e08f590003003d0078009000d1c2b300da
:1010c0000a003700081090000018a3000300320047
:1010d00078009000b1c2b300040037000008a300fc
:1010e000530032007800900001c2b300017578000f
:1010f0000000e8004d003700a8609000c0c6b300b3
:1011000080cf500006003a009400780064805000c0
:10111000000a78001002be006033b80013003700e8
:1011200010c7b30080cf500003003200a0c6b30048
:1011300080cf500006003a0094007800688050008c
:10114000000a78003002be002003be00070037000e
:101150001480e900000a780010007800000278008e
:10116000050020000600200007002000049cbe00af
:101170000694be00a860900080c6b30080cf5000e7
:101180000e00320020c6b30080cf500005003a00a8
:101190000480fb000100200002002000030020006a
:1011a0000a00370040c7b30080cf50000300320070
:1011b0006640400080cf500006003a0004007800ee
:1011c000010020000200200003002000009cbe005f
:1011d0000294be00081090000038a30014003200f2
:1011e0003800be002801be00e00f5000e08f58001c
:1011f000e00f5900e08f59000d00320080c7b300a6
:1012000080cf54000300320080c5b30080cf54006b
:1012100007003a007800900001c3b3000175780020
:101220008000e80009f578000080e800700498006c
:101230007800900000004500600498008940780024
:1012400042003700a8609000c0c6b30080cf5000b5
:10125000250032000a003c006440500080cf50005e
:101260002800320000c0e80080cf50001400320097
:101270006840500080cf500022003a000a0037003a
:1012800040c7b30080cf50001e00320066404000cf
:1012900080cf50001b0032006940500080cf5000ca
:1012a00018003a00060037001480e900000a7800b0
:1012b00010007800485c900008487800450037002e
:1012c0001480e900000a7800100278006808900095
:1012d000cf80de000101780082017800009abe0014
:1012e0000292be003b0037001480e900000a78003b
:1012f0001001780068089000cf80de000089be00f1
:10130000340037001480e900000a780010007800eb
:10131000680c9000080878002e0037001180e90062
:101320008008780010007800cf80de00010178008e
:1013300082017800009cbe000294be0078009000fc
:10134000000045006004980081c7b30008007800e1
:10135000460107001f0037001480e900000a7800ea
:101360001000780060049800580990000200e00026
:1013700002003d00ca020700090037008000eb00b0
:1013800080fe0700800078000000e00003003200cb
:10139000680090000080500001003700580890005d
:1013a000100c98000b003700780090000275780050
:1013b0000600370078009000800045000904e00036
:1013c00001003a0059c2b300894878000000e800e3
:1013d000700498000000eb004f0578004f04be0039
:1013e000000006000400fa00889fbe008a9fbe002d
:1013f0008c1f7800000478000106780070089000c7
:10140000f800900001005000880890000100500092
:101410009808900001005000a808900001005000ba
:10142000b808900001005000c808900081055000e5
:101430000002220090bf9f0000032300a0bf9f0076
:10144000081090000028a30018003a000b00e000ec
:10145000160034008b04780009057800e28f5400f0
:10146000020036002a002000020037000900e000d8
:101470000b00340058009000c80190000a01780069
:10148000ee80570003000100500498000000e000c7
:10149000960032006808900000004500600c98003b
:1014a0008a8454004240a900ebff3c007801900080
:1014b0000200e0000b00340058009000c8019000ca
:1014c0008c00780003000100500498000000e00048
:1014d0008600320068089000f8009000010040008b
:1014e000600c9800880c90000900e00015003400a2
:1014f00009057800e28f5400020036002a0020001f
:10150000020037000900e0000b0034005800900092
:10151000c80190000a017800ec8057000300010028
:10152000500498000000e00070003200680890004d
:1015300000004500600c98008a8454004240a900d5
:10154000ebff3c00180990000200e0000b003400a3
:10155000e800900058009000c801900003000100ce
:10156000500498000000e00060003200680890001d
:101570009808900001004000600c9800a80c9000b2
:101580000900e0001500340009057800e28f5400de
:10159000020036002a002000020037000900e000a7
:1015a0000b00340058009000c80190000a01780038
:1015b000ec80570003000100500498000000e00098
:1015c0004a0032006808900000004500600c980056
:1015d0008a8454004240a900ebff3c003809900087
:1015e0000200e0000d003400e800900018089000b0
:1015f0008080400058009000c80190000300010066
:10160000500498000000e0003800320068089000a4
:10161000b808900001004000600c9800c80c9000d1
:101620000900e0001500340009057800e28f54003d
:10163000020036002a002000020037000900e00006
:101640000b00340058009000c80190000a01780097
:10165000ec80570003000100500498000000e000f7
:10166000220032006808900000004500600c9800dd
:101670008a8454004240a900ebff3c00081090000f
:101680000028a3001b0032000b00e000190034000a
:101690008b04780009057800e28f540002003600c0
:1016a0002a002000020037000900e0000b0034008f
:1016b00058009000c80190000a017800ee805700a1
:1016c00003000100500498000000e0000700320011
:1016d0006808900000004500600c98008a8454005f
:1016e0004240a90003003400eaff37000080eb000d
:1016f000010037000000eb004f0678004f05be00e8
:101700004f04be000080fa0000000600881f780029
:10171000289220001804e00004003a00e0c12000f4
:10172000e601070020c0b300004c78004f047800a9
:1017300000000600889fbe00000478009bfd0700a3
:1017400080047800000420001800600002003200cd
:1017500028009000fffb07000000eb002004980029
:10176000384090000004e000050035000000fb0058
:10177000290207000000e000010032008084eb0035
:10178000181090000000e000080032002b02070053
:101790000000e000010032008084eb00181090008f
:1017a000ecfb07000000eb0010149800000820007c
:1017b00018006000100032000000eb00818520005e
:1017c000910f1400070032000000e8008180e8005b
:1017d000e80f5000faff3a0008007800ddfb070030
:1017e00013003700000140008000eb0080852000de
:1017f00001307900f8ff3700000c780000c0eb00e2
:101800003044980060022000080040002004980046
:101810004004980050049800400c98006004980020
:10182000500c98007004980076004400000c98005a
:10183000090078004f04be0000000600881f7800f1
:1018400068862000180078000000e00001003200e7
:10185000b8ff07000884e90060852000800f54006d
:10186000f8ff3a004f047800000006002f03b00094
:10187000889fbe008a9fbe008c9fbe008e1f78008e
:1018800000077800108f2000c0b79f0080c5b3000c
:1018900080cf500008003200028e2000c2b79f00a7
:1018a0007740400080cf500003003a0083002000c2
:1018b000b3b79f000a00370080c7b30080cf500045
:1018c00005003200a4002000b4b79f0080c5b3001b
:1018d00080cf500002003a0005012000b5b79f00fc
:1018e0003e04be002e05be0040c6b30080cf5000af
:1018f000030032006540400080cf50000b003a00ea
:10190000e00f5400e08f5c00e00f5d00e08f5d00b1
:1019100006003d006000b8006011b80008045000e7
:10192000898458000a0559008b8559003fb19700fa
:10193000e80f510003003200f00f510045003a005b
:10194000020037003c002000010037004c0020005e
:10195000e00f5400e08f5c00e00f5d00e08f5d0061
:1019600005003a005e08900083012000a3b79f00a5
:101970000000e000080032003fb297000400e900d8
:1019800008006000cfb297006540780090df9f00ac
:1019900070012000a0b79f008c0078008100e90052
:1019a000050033008b05d1000a85d3008984d3005c
:1019b0000884d300f9ff3700089fbe000a97be00d5
:1019c0002fb197000200e90023fc2f008f81410016
:1019d00000844100140037002fb097000000e90098
:1019e000a0b79f003fb197000200e900040060002b
:1019f000cfb19700635478003e00be002e01be00b8
:101a00000c0278000402e900050033008381d10054
:101a10000281d3008180d3000080d300f9ff37001a
:101a2000009fbe000297be003e02be002e03be0015
:101a3000e00f5200e08f5a00e00f5b00e08f5b0088
:101a4000da0034002fb097000000e000e2ff3c0015
:101a5000d6003700ae60900080c6b30080cf500043
:101a60000b00320006003c000104e00008003200d8
:101a70006640500080cf500073003a0004003700e9
:101a8000c0c6b30080cf50006f003a00310037006d
:101a9000080178000800e00005003a005e089000a8
:101aa00081012000a1b79f000000e0000900320082
:101ab000bfb19700110009000381d8008000fd002c
:101ac0004fb297006440780090df9f0075012000be
:101ad000a5b79f003fb29700110009000481d8000c
:101ae00080017800afb297000500e90021fc2f00cb
:101af0008f804000008240000c003700bfb297008a
:101b0000110009008501d800000178002fb097006e
:101b10000000e900a0b79f000590b90000805100c7
:101b2000cfb0970061527800820178000300e00096
:101b3000030034002fb197000200e000efff3c00eb
:101b400003007800cf80de00010178008201780078
:101b50003a0037000806be00e00f5400e08f5c003a
:101b600005003a005e08900083012000a3b79f00a3
:101b70000000e000090032003fb297006121b90087
:101b80000c00be00f3020700cfb29700654078005a
:101b900090df9f0070012000a0b79f003fb2970028
:101ba0006121b9000c00be00ed0207000006be0076
:101bb000afb297000500e90021fc2f008f804000a4
:101bc0008080400091b79f00110037003fb197001f
:101bd0006114b9000801be000c00be00f00207004d
:101be0000005be00afb197008301e900a3b79f00d5
:101bf0000801be0029010700000056001fb297002f
:101c0000cfb297006552780094b79f000a06be00d5
:101c1000e00f5600e08f5e00030034002fb0970005
:101c20000000e000e9ff3c004feade00cfa2de004a
:101c30000c00be000401780084017800009fbe0003
:101c40000297be0059003700e00f5400e08f5c009f
:101c5000e00f5d00e08f5d0005003a005e08900037
:101c600081012000a1b79f000000e0000d003200bc
:101c70003fb1970002027800cfa2de000503780092
:101c8000860378000800be000a01be005403070066
:101c90004fb297006440780090df9f0075012000ec
:101ca000a5b79f003fb1970002027800cfa2de00e7
:101cb00005037800860378000800be000a01be0014
:101cc00040030700009fbe000297be00afb197001f
:101cd0000300e90024fc2f000f024200000642002e
:101ce00024003700bfb2970005047800cfc4de009f
:101cf000090578008a0578000802be000a03be00c4
:101d00005fa89700efa897007fa997008fb1970071
:101d100037030700d0b79f00e1b79f00f2b79f00dd
:101d200083bf9f002fb097000000e900a0b79f007d
:101d30000802be000a03be005fb09700efb0970034
:101d40007fb197008fb99700af0307005faa970094
:101d500000005200cfb29700655678005fb0970040
:101d6000efb097007fb197008fb99700009fbe003a
:101d70000297be003e00be002e01be00d0af9f0005
:101d8000e1af9f00f2af9f0083b79f00e00f5000cc
:101d9000e08f5800e00f5900e08f59000300340035
:101da000afb097000100e000ceff3c003fb19700cc
:101db000e80f510013003a000e1090000038a30005
:101dc00010003200afb19700f78f510006003e00bf
:101dd00024fc2f000f0242008300420000c3b30026
:101de000914f100007003200afb297008502e90062
:101df000a5b79f0000c3b30021fc2f008f804000d7
:101e000080f07a00afb1970078811100120f98002e
:101e10006e00900024fc2f000f024200830042005d
:101e20008efb07001e0990005e089000800f510095
:101e300006003d0002005000000f98000e109000b8
:101e40000040a100001798000f0037000000e000dc
:101e50000d003d000e10900074006000f00f500067
:101e600009003a007e089000fe009000010050003a
:101e70008e08900001005000020050004240a9006e
:101e800001003400000f98004f0778004f06be0095
:101e90004f05be004f04be002f03b1000000060036
:101ea00080007800010037000000e8001004e00026
:101eb000fdff3a000100500000000600000178001c
:101ec000000020000000e000080032000000800058
:101ed0000000e000050032000000e900000088007a
:101ee000000040000100800002b078000000060001
:101ef000889fbe0080047800204980000000e00038
:101f000003003a00560007000000e0000a00350018
:101f1000204980000900e00002003a000004780037
:101f20000600370000047800090040004c0007005c
:101f30000000e00001003d000084eb000800780094
:101f40004f04be00000006000a00fa00800178007d
:101f5000e20f500025003e0030498000e10f5000a4
:101f600008003200802320000000e000050032005d
:101f70000423200025232000462320008001780030
:101f800004003700042220002522200046222000e1
:101f900083222000144090000004e000030035007c
:101fa0008009eb0000002800140a70001540900022
:101fb0000028a30001003a0015a0a0008001eb005a
:101fc00007003700154090000008a300fdff320015
:101fd00063c078000000fb00000b78008301e8007c
:101fe000828f5100f7ff3a000800370030002000d0
:101ff000b0bf9f00c3bf9f00d1bf9f00e2bf9f0043
:102000006a80570000c0da006fb9970002007800bc
:102010000080fa00000006000a00fa00110020000b
:10202000b1bf9f00c0bf9f006a80570000c0da00a8
:102030004fb897000080fa00000006000a00fa007e
:1020400051002000b1bf9f00c0bf9f006a805700b1
:1020500000c0da005fb897000080fa0000000600b8
:10206000800078000000e00004003a008092200028
:102070002049880001017800060037000081eb004c
:1020800080122100808f500002003e00214988000c
:102090000001eb000200780000000600020ab9000f
:1020a000001bb9000200b80081004200810043001b
:1020b00000000600889fbe008a9fbe0001057800d0
:1020c0000100e0000400350008003c000000e000d2
:1020d000200032000500370060001000e08018008a
:1020e00002003b0001f02c001a0037000004be0083
:1020f0006011b8006b0920000982cf00020039008e
:102100000882cf000441b000694252000e00320044
:1021100008003b0082817100610164008904d100e4
:102120000884d3008b05e8000442e800f9ff3a0078
:10213000050037000804440089844c008b05e90041
:102140000442e900fbff3a002f0107000af0a70054
:1021500001f0a0004f05be004f04be0000000600c5
:10216000889fbe008a9fbe008c1f78004c0107002c
:102170005301330003866c006450e10024003200f8
:102180006420e100270032006150e10022003200ab
:102190006120e100210032008b854200eb07b10095
:1021a0000134b800003ab8000804420089844a00ab
:1021b000013ab8000030b8008880400009014a00a8
:1021c0000400330000004000818048000201490003
:1021d0008b05e900c909dd008301700001003200b0
:1021e00013002000c814de004814dd004709de009b
:1021f0001200b200c808de00088470000201070067
:1022000001f0a1000cf0a70001f0a000350137009b
:102210006120e100370132000801be000200be006b
:10222000f7ff37006150e100fcff3a003101370051
:102230000001be00320107000470a70003f0a100f6
:102240006509b100160032000d0035006828e10074
:1022500006003500f0ff2f00f1ff27000300e0002b
:1022600013003b00010028000000050000004000b2
:10227000818048008502e900fcff3a000800370031
:10228000f88f420002003c008000eb0000000500d7
:102290008100d1000080d3008502e800fcff3a00f5
:1022a0000300e00002003b0060001000e080180026
:1022b0000000060003f0a200889fbe008a9fbe00b7
:1022c0008c1f7800f6000700fd0033006450e10029
:1022d0004f0032006420e1005200320003826c00a3
:1022e00007003b000905d0000306d000820f540010
:1022f0000c065d00020039000200320089017800fe
:10230000030678008582550004003d000003fd00af
:102310008103fd008502ea008b854200840f720074
:1023200002003b0060001000e08018006011b8005f
:102330000005eb007a28e1000a0039000600780069
:10234000c75ddd00f707b200878075002d003700fc
:10235000828171000a017800610560008180d100ee
:102360000080d3008502e900f9ff3b00060440002d
:102370008784480002003b0060041400e0841c00d5
:102380000988a300070032008a81710082817100f0
:10239000610164008904d1000884d3008b05e80042
:1023a000170037000978a30013003a000b00e00083
:1023b000130034008b05e9000804440089844c00b4
:1023c0000a4474000978a3000d003a000b00e000f5
:1023d000070034008b05e9000804440089844c00a0
:1023e00001003a000b0020000978a300f7ff32003b
:1023f0000001eb0002003700828171000a017800c1
:10240000810007000cf0a70001f0a000b500370024
:102410006420e10002003a00838f6c00b5003300b5
:102420000801be000200be00ae003700889fbe005b
:102430008a9fbe008c1f780099000700a00033001f
:1024400003866c006450e1002e0032006420e1003d
:10245000330032006150e1002f0032006120e100c2
:102460003100320085855500eb07b00009002000df
:1024700008042000050037000804440089844c004b
:102480000a0031000603430087834b00000153001c
:1024900081815b00f8ff33000203be000800a0004a
:1024a0000804440089844c00f6ff3900c639dd0079
:1024b0008301730001003200130020008904d10061
:1024c0000884d3000998a300050032000800a70083
:1024d0000300a0008904d1000884d3008b05e80024
:1024e0008904d1000884d3000001eb000281d200ee
:1024f0004500070001f0a1000cf0a70001f0a000ca
:10250000780037006420e1007a0032000801be0044
:102510000200be00f7ff37006120e10075003200c5
:102520006000b800f3ff37000000200001f827002a
:10253000f0ff3700889fbe008a9fbe008c1f780086
:102540000004be006e0007000478a30026003a00d5
:102550006120e1002500320009f8a30025003a00bf
:102560006420e10021003200f507b1000508a30056
:102570000200320000004000818048006044b80042
:10258000031020000200200000004000818048006d
:102590000805440089854c000a0541008b854900e7
:1025a0000a0550008b855800030033000a00be0066
:1025b00002047400838474008301d1000281d3007b
:1025c000830f7100f0ff3a008904d1000884d30022
:1025d0006001490082017800c1adde00fb07b00058
:1025e000090007003f0037000960a0000800be0096
:1025f0003c00370012022000b2428800f0ff2f009a
:10260000f1ff27003700370081002000618055006e
:102610000b003d000b00200061fe2f000100e100d7
:102620001d00340082817100610164008904d100c1
:102630000884d3000000e800faff3a00710020008f
:1026400061006400030070000200600009003200b5
:1026500061044400e0844c000988a50005003200b4
:102660008b05e8006808e10002003a008904d10007
:102670000884d300f20f20000258e10005003d005d
:10268000c75ddd00f907b200898075000800780099
:10269000000006000bf827008b0078000000050002
:1026a0000004be00160007000003be000405be00c3
:1026b0000200be0012000700844f750000000600f3
:1026c0000200be006450e100050036006420e10015
:1026d000020036000968a30001003a000800be00ad
:1026e0000160a0004f0678004f05be004f04be00f9
:1026f00000000600f0ff2f00f1ff2700f9ff370070
:10270000c70ade00f107b200f50fb2000800320080
:10271000e1cf4200020032000170a0002400050059
:10272000810f70000100320004080500440005001c
:10273000810f700002003a00140005008502e900d4
:102740000000400081c04800fcff3b000170a00079
:1027500024000500020007000400be00000006007f
:102760006022b800060220000000d0008180d20064
:102770000482d2008582d2000000a0000202520032
:1027800083825a00030031000202420083824a0021
:102790000000a1000603e900f3ff3a000000060074
:1027a000839f68000100e00002003d00600010000f
:1027b000e08018000300e00002003d00600111000d
:1027c000e0811900e6ff07004f00e00002003b0037
:1027d00060001000e080180000000600881f7800ec
:1027e000000478005001be004000be00040040001c
:1027f000858048000601490087814900009cbe0091
:102800000294be000400e1000588e1000690e100aa
:102810000798e10002003100680044001008e80059
:102820004f04780000000600f4874700889fbe0030
:102830008a9fbe008c9fbe008e1f78000205be00de
:102840000004be00d4b79f00e5b79f00f6b79f0015
:1028500087bf9f000000eb00c0b79f00b0b79f008c
:10286000a0b79f0090b79f0080b79f000d04200085
:10287000bfb097004fb09700000140000000e0009b
:102880000f003d004f08de0000007100c0b79f0040
:102890009e00070001003d0012002000a10007007b
:1028a00001003d0012002000a6000700b100070053
:1028b000b60007000f004000c8ff070022003700e5
:1028c0004f08de0000067100ccb79f008f000700a4
:1028d00001003d00120020009200070001003d00b1
:1028e0001200200097000700a20007000fb2970017
:1028f0009fb297002fb39700bfb39700a9000700be
:102900000000520081805a0002015b0083815b005d
:1029100080b79f0091b79f00a2b79f00b3b79f00f9
:102920000007eb009f0007000020e10001a8e10084
:1029300002b0e10003b8e100010031001e002000f8
:102940000e005600c0b79f004fb297000400e00091
:102950000700350010002000010020006011b800c1
:1029600008047000898470000a0571008b8571006d
:102970008d06e900beff3a000400e00003003d00c0
:10298000820007000f00400094ff07004fa8970047
:102990000000e00004003a000fb497009fb49700d5
:1029a0002fb59700bfb59700940007004f07780038
:1029b0004f06be004f05be004f04be004f01b100e0
:1029c00000000600881f780018002000881f78008b
:1029d00095ff07008f87e9004f047800000006008c
:1029e000801feb0090ff07008f87e90000000600c2
:1029f000889fbe008a9fbe008c1f78006e00070073
:102a000007003d0073000700e00f5b00e08f5b00f4
:102a100007003d00320007000006eb00040037000d
:102a20003400070002003d002a0007001c002000bf
:102a300072000700e3ff07000203be000002be00b1
:102a40000c00e00001003200220007000400be007c
:102a50000601be004f0678004f05be004f04be00c1
:102a600000000600889fbe008a9fbe008c1f780071
:102a70005100070005003d0056000700e00f5b0015
:102a8000e08f5b0006003d000400370019000700de
:102a900003003d006000b8006011b800100007009e
:102aa00056000700ceff07000203be000002be0072
:102ab0000c00e00001003200060007000400be0028
:102ac0000601be004f0678004f05be004f04be0051
:102ad000000006006000b8006011b8000000370078
:102ae000040250008582580006035900878359006c
:102af000000006000006eb00e00f5200e08f5a00d5
:102b0000e00f5b00e08f5b000000060001804000ea
:102b100090b79f000001eb008fb097000100e0002c
:102b2000000006000200700090b79f000180400086
:102b300080b79f000001eb00ffa897000100e000b4
:102b4000000006000200700080b79f000180400076
:102b50006faa9700cf20de0001007000f0af9f0049
:102b600004024200250007004f18de000002720038
:102b700000000600e4af9f000804440089844c0074
:102b80000a054d008b854d00000006003fb29700fe
:102b9000cfb297005fb39700efb3970000fe2f000e
:102ba000000006003fb09700cfb097005fb19700dc
:102bb000efb19700000006000205be000004be0051
:102bc000e00f5000e08f5800e00f5900e08f5900ef
:102bd000000006006000b8006011b8000804500052
:102be000898458000a0559008b8559001c00200073
:102bf000e00f5200e08f5a00000006000800be00ff
:102c00000a01be0000000600889fbe008a9fbe0029
:102c10008c1f78000205be000004be000006eb0019
:102c2000e00f5000e08f5800e00f5900e08f59008e
:102c300007003d006000b8006011b80008045000b3
:102c4000898458000a0559008b8559001c00200012
:102c5000e00f5200e08f5a00e00f5b00e08f5b0056
:102c600002003d000f0007000c00a2000800be009b
:102c70000a01be00120007000203be000002be00ef
:102c80000c00e00001003200060007000400be0056
:102c90000601be004f0678004f05be004f04be007f
:102ca000000006006000b8006011b8000402500087
:102cb00085825800060359008783590000000600ea
:102cc000889fbe008a9fbe008c9fbe000404b8008f
:102cd0000506b8008904460060854e000606b80067
:102ce0000a054600e0854e000706b8008b05460041
:102cf000040eb800890446000a854e00e0854d00a8
:102d0000050eb8000a0546008b854e00060eb80079
:102d10008b0546000416b8000a0546008b854e0058
:102d20000516b8008b054600041eb8008b0546004a
:102d30000800be000a01be004f06be004f05be00df
:082d40004f04be000000060074
:020000040000fa
:020000040002f8
:04aff8009eff0000b8
:020000040000fa
:020000040002f8
:04affc007f3a000098
:020000040000fa
:100008009021000090210000902100009021000024
:100018009021000090210000902100009021000014
:10002800902100009021000090210000621e000035
:1000380090210000902100009021000090210000f4
:1000480090210000902100009021000090210000e4
:1000580090210000902100009021000090210000d4
:10006800902100009021000090210000101e000047
:1000780090210000902100009021000090210000b4
:1000880090210000902100009021000090210000a4
:100098009021000090210000902100009021000094
:1000a8009021000090210000902100009021000084
:1000b8009021000090210000902100009021000074
:1000c8009021000090210000902100009021000064
:1000d8009021000090210000902100009021000054
:1000e8009021000090210000902100009021000044
:1000f8009021000090210000902100009021000034
:100108009021000090210000902100009021000023
:100118009021000090210000902100009021000013
:100128009021000090210000902100009021000003
:1001380090210000902100009021000090210000f3
:1001480090210000902100009021000090210000e3
:1001580090210000902100009021000090210000d3
:1001680090210000902100009021000090210000c3
:1001780090210000902100009021000090210000b3
:1001880090210000902100009021000090210000a3
:100198009021000090210000902100009021000093
:1001a8009021000090210000902100009021000083
:1001b8009021000090210000902100009021000073
:1001c8009021000090210000902100009021000063
:1001d8009021000090210000902100009021000053
:1001e8009021000090210000902100009021000043
:0801f80090210000902100009d
:020000040000fa
:100208009021000090210000902100009021000022
:100218009021000090210000902100009021000012
:10022800902100009021000090210000621e000033
:1002380090210000902100009021000090210000f2
:1002480090210000902100009021000090210000e2
:1002580090210000902100009021000090210000d2
:10026800902100009021000090210000101e000045
:1002780090210000902100009021000090210000b2
:1002880090210000902100009021000090210000a2
:100298009021000090210000902100009021000092
:1002a8009021000090210000902100009021000082
:1002b8009021000090210000902100009021000072
:1002c8009021000090210000902100009021000062
:1002d8009021000090210000902100009021000052
:1002e8009021000090210000902100009021000042
:1002f8009021000090210000902100009021000032
:100308009021000090210000902100009021000021
:100318009021000090210000902100009021000011
:100328009021000090210000902100009021000001
:1003380090210000902100009021000090210000f1
:1003480090210000902100009021000090210000e1
:1003580090210000902100009021000090210000d1
:1003680090210000902100009021000090210000c1
:1003780090210000902100009021000090210000b1
:1003880090210000902100009021000090210000a1
:100398009021000090210000902100009021000091
:1003a8009021000090210000902100009021000081
:1003b8009021000090210000902100009021000071
:1003c8009021000090210000902100009021000061
:1003d8009021000090210000902100009021000051
:1003e8009021000090210000902100009021000041
:0803f80090210000902100009b
:020000040000fa
:102d4800436100006e2000006e6f000074200000d8
:102d58006372000065610000746500002062000075
:102d680075660000666500007220000000430000e0
:102d78004e4900006e740000657200007275000014
:102d88007074000000450000525200004f520000cd
:102d9800206900006e2000005b250000735d0000c4
:102da80020660000756e000063740000696f000003
:102db8006e21000020250000732000003d20000047
:102dc8002564000028680000657800003d30000098
:102dd8007825000030380000582900002020000025
:102de8000042000075660000666500007220000061
:102df8006973000020660000756c00006c0000001c
:102e080054310000496e00007465000072720000c1
:102e180075700000740000006d610000696e0000ac
:102e280000430000616e0000206e00006f74000017
:102e380020660000696e00006420000077610000d1
:102e4800697400006e67000020620000756600006b
:102e58006665000072000000726d0000733d00009e
:102e6800256400003b200000746900006d650000c7
:082e78003d250000640000008c
:020000040000fa
:102e80000400fa00100798000000eb00000f780023
:102e9000260037001e0090009e0f10002200350013
:102ea0009e0178001e00e800c300dd0000802000c5
:102eb0000080400010017800c318dd000080200071
:102ec00000804000020878009e0178001e00e800a3
:102ed0004300dd00e400400000802000008040004e
:102ee000100178004318dd00e4004000008020005d
:102ef00000804000020878009e0178001e00e80073
:102f00004300dd008080e800008020000080400059
:102f1000100178004318dd008080e8000080200068
:102f200000804000020878001e0fe8008042800008
:102f30000000e9009e0f5000d6ff3c008042800058
:102f40000000e900804288000080fa0000000600ce
:102f50000200fa00881f780080428000e90f5000cc
:102f60002b003c008042800092428000c300dd00c4
:102f70000080200000804000020878008842800025
:102f8000803e20006ef50700000178004340dd0020
:102f9000e40040000080200000804000020878002b
:102fa000804280004300dd008080e8000080200037
:102fb000808040000000eb008008780080428000a4
:102fc0004300dd00e60040000080200080804000db
:102fd0000000eb0080087800904280000000e800cc
:102fe00090428800804280000000e8008042880013
:102ff000804280000000e900c300dd000080200066
:103000000080400010007800000f780002003700b8
:103010000080eb00000f78001e0078004f0478005d
:103020000080fa00000006000400fa000000eb0037
:10303000000f7800100037001e0078004300dd000c
:103040008080e800008020000080400010007800b0
:103050000000e00007003a001e007800c300dd0019
:1030600000802000008040001000780010079800c9
:10307000060037001e0fe800804280009e0f1000ff
:10308000edff35000080eb00100798001e00900057
:103090000080fa00000006000400fa000000eb00c7
:1030a000000f7800100037001e0078004300dd009c
:1030b0008080e80000802000008040001000780040
:1030c000e10f500007003a001e007800c300dd0049
:1030d0000080200000804000100078001007980059
:1030e000060037001e0fe800804280009e0f10008f
:1030f000edff35000080eb00100798001e009000e7
:103100000080fa00000006000400fa000000eb0056
:10311000000f7800110037001e0078004300dd002a
:103120008080e800008020000080400010007800cf
:10313000e10f500008003a001e0078004300dd0057
:10314000e400400000802000008040001000780073
:1031500010079800060037001e0fe800804280002c
:103160009e0f1000ecff35000080eb001007980068
:103170001e0090000080fa00000006000600fa0021
:10318000100798000000eb00000f780011003700d6
:103190001e007800c300dd00008020000080400099
:1031a000900078001e009000808f500008003a00c8
:1031b0001e0078004300dd00e40040000080200095
:1031c00000804000100078002007980006003700bb
:1031d0001e0fe800804280009e0f1000ecff3500bb
:1031e0000080eb00200798002e0090000080fa007d
:1031f000000006000600fa00100798000000eb002f
:10320000000f7800110037001e007800c300dd00b9
:103210000080200000804000900078001e00900098
:10322000808f500008003a001e0078004300dd0047
:103230008080e800008020000080400010007800be
:1032400020079800060037001e0fe800804280002b
:103250009e0f1000ecff35000080eb002007980067
:103260002e0090000080fa00000006000600fa0020
:10327000100798000000eb00000f780011003700e5
:103280001e007800c300dd000080200000804000a8
:10329000900078001e009000808f500008003a00d7
:1032a000804280004300dd00e600400000802000f6
:1032b00000804000100078002007980006003700ca
:1032c0001e0fe800804280009e0f1000ecff3500ca
:1032d0000080eb00200798002e0090000080fa008c
:1032e000000006000600fa00100798000000eb003e
:1032f000000f7800350037001e0078004300dd0025
:103300008080e800008020000080400010007800ed
:103310000000e0002c003a001e0078004300dd00b1
:10332000e60040000080200000804000900078000f
:10333000703e2000808f5000030034000080eb00be
:1033400020079800260037001e0078004300dd00ab
:10335000e400400000802000008040001000780061
:103360009e009000010878001e0178004310dd00e7
:10337000e400400000802000008040001000780041
:103380008001e8004310dd00e400400000802000e0
:1033900000804000030878001e0178004310dd0023
:1033a000e60040000080200000804000100078000f
:1033b0008001e8004310dd00e600400000802000ae
:1033c00000804000030878001e0fe8008042800063
:1033d0009e0f1000c8ff35000000eb00200798008a
:1033e0002e0090000080fa00000006000400fa00a1
:1033f0000000eb00000f7800170037001e00780077
:103400004300dd008080e800008020000080400054
:1034100010007800e10f500003003a001000200077
:1034200010079800110037001e0078004300dd00ef
:103430008080e800008020000080400010007800bc
:10344000e30f500003003a0010002000100798001e
:10345000060037001e0fe800804280009e0f10001b
:10346000e6ff35000000eb00100798001e009000fa
:103470000080fa00000006000600fa00f0ff2700b6
:10348000000f78000000eb0020079800390037009b
:103490002e0090004300dd008080e80000802000c6
:1034a00000804000100078000000e0002e003a008c
:1034b0002e0090004300dd008080e80000802000a6
:1034c0008080400010002000800878000000eb00a1
:1034d000100798001f0037001e0090004300dd0019
:1034e0008080e8000080200000804000100078000c
:1034f000e10f500004003a00ae0090001e00900062
:10350000808f500008003a001e0090004300dd004c
:103510008080e800008020000080400010007800db
:10352000e30f500008003a002e0090004300dd0039
:103530008080e80000802000808040003000200073
:10354000800878000f0037001e0090000000e8009f
:1035500010079800814280001e009000810f5000eb
:10356000ddff3500070037002e0090000000e80066
:1035700020079800814280002e009000810f5000ab
:10358000c3ff35000000eb0020079800170037004c
:103590002e009000c300dd0000802000008040006d
:1035a000100078009e0f50000d003d002e0090008e
:1035b0004300dd008080e8000080200000804000a3
:1035c00010007800e30f500005003a002e00900034
:1035d000c300dd000080200000804000100f780054
:1035e0002e0090000000e800200798008142800033
:1035f0002e009000810f5000e5ff35000000eb0029
:1036000020079800190037002e009000c300dd004d
:103610000080200000804000100078009e0f5000c5
:103620000f003a002e0090004300dd008080e8008b
:10363000008020000080400010007800e30f500060
:1036400007003a002e0090004300dd008080e80073
:10365000008020008080400010002000800878005a
:103660002e0090000000e8002007980081428000b2
:103670002e009000810f5000e3ff35000080fa001b
:10368000000006000000fa000000eb008042880005
:103690000080fa00000006000800fa0020079800e9
:1036a000310798000000eb00100798000000eb00c5
:1036b000000f78000a0037001e007800000040006c
:1036c000800078002e00900000804000900078007c
:1036d0001e00900001004000100798001e0fe80037
:1036e0003e0090009e0f1000f3ff35001e0090007a
:1036f0003e019000110009000200d8001007980058
:103700001e0090000080fa00000006000a00fa0087
:1037100030079800410798006000b8001007980033
:10372000210798000000eb00000f78000c00370024
:103730001e0078004200dd00800078003e0090000e
:10374000008040001001be001e009000ae009000fe
:10375000d9fa070010079800210798001e0fe8000b
:103760004e0090009e0f1000f1ff35004e009000bb
:10377000cf80de004ffa07000001be001e0090005f
:10378000ae00900029fb0700100798002107980061
:103790001e009000ae0090000080fa0000000600bd
:1037a0000c00fa00889fbe0040079800510798005f
:1037b0000000eb0010079800de0090004e00900023
:1037c000b5ff0700300798000000eb0020079800c5
:1037d000180037001e009000cf80de0035fa070089
:1037e0000004be002e009000000040008000780021
:1037f0004e00900000804000900078003e00900055
:1038000000805000cf80de002afa07000001be00d1
:1038100053fa07000001be000800be00a6fa070028
:1038200083fa0700100798002e0090000000e800bf
:1038300020079800ae0090005e009000808f50003e
:10384000e4ff35005e0090000001e9001e009000da
:10385000110009000200d800100798001e00900017
:10386000cf80de0013fa070032fb070070fa070072
:10387000000f78001e0078004f04be000080fa00a0
:10388000000006001200fa0070079800010f98006f
:103890006000b80020079800310798008e0890005b
:1038a0007e00900099ff070050079800610798007c
:1038b0000000eb0040079800130037004e00900016
:1038c0004200dd00800078007e0090000080400013
:1038d0001000be005e019000ee01900075fa070036
:1038e0000001be001efa07002e019000be019000ec
:1038f00071fa070020079800310798004e009000e9
:103900000000e80040079800ce0090000e089000ec
:10391000808f5000e9ff35000e0890000000e9009c
:10392000cf80de00e3f907000001be002e0090000a
:10393000be009000bdfa07002007980031079800ec
:103940002e009000be009000fafa0700008fbe0023
:103950001e00be000080fa00000006001a00fa00f7
:10396000889fbe008a9fbe00200f9800310f9800ec
:10397000420f98006000b800000f9800110f9800e7
:103980000000eb00000f78000000eb0050079800eb
:10399000450037001e0fe8005e0090004200dd0089
:1039a000800078002e089000008040001001be00ca
:1039b0003e009000ce0090003ffa070030079800cc
:1039c000410798005e0090004200dd008000780012
:1039d0002e089000008040001000be000001be00d4
:1039e000dff907001e019000ae01900032fa0700d7
:1039f00010079800210798001e007800cf80de0095
:103a0000acf907000001be003e009000ce0090001f
:103a100086fa0700000f9800110f98001000200090
:103a20009e0f100003003a006000b8006007980085
:103a3000710798001e059000ae0590003e009000b2
:103a4000ce0090000001be00c5f907000004be00d2
:103a50001e007800cf80de0096f907000001be004e
:103a60000800be0071fa07000001be000a00be0097
:103a700010fa0700affa07000004be001e00e900bc
:103a8000cf80de008bf907000001be000800be00f9
:103a900066fa070060079800710798005e009000c2
:103aa0000000e80050079800de0090003e089000fb
:103ab000808f5000b7ff35006e009000fe00900030
:103ac0004f05be004f04be000080fa000000060053
:103ad0000c00fa00008fbe00220798002e00900014
:103ae00050079800de009000e18f50001400320073
:103af0005e009000e10f500004003c00de009000ea
:103b00000100e00008003200220037005e00900053
:103b1000e20f500011003200de009000e38f5000f1
:103b2000150032001b0037001e00be000001be0061
:103b3000e1f90700300798004107980018003700a6
:103b4000723d2b00d30524001e00be0084f907003f
:103b5000300798004107980011003700324f2000cd
:103b6000530324001e00be007df9070030079800b3
:103b7000410798000a0037000200200003102400cb
:103b80001e00be0076f90700300798004107980034
:103b9000030037001e00be00300798004107980060
:103ba0003e009000ce0090000080fa000000060069
:103bb0000600fa00889fbe00008fbe002207980012
:103bc0001e04be002e009000cf80de0039f90700f1
:103bd00058fa07000001be000800be0013fa0700f3
:103be0004f04be000080fa00000006000800fa0042
:103bf000008fbe0022079800330798002e01900026
:103c0000be0190001e00be0008fa0700020020005e
:103c1000832c240052f907000080fa0000000600ff
:103c20003600f800809fbe00829fbe00849fbe00c9
:103c3000869fbe003400f80000002000a00188002c
:103c40000200fa008660a900d4c2bf0001c8b30018
:103c5000014060000004e00012003200100020006b
:103c6000a042880004fe0700b9fc0700000f78009e
:103c70000080eb009e0f10000a003a0010002000a8
:103c8000801f7800406a2900801f7800b06b2900ef
:103c9000801f7800706c2900801f780087f2070071
:103ca000e88757000080fa003400f9004f03be0097
:103cb0004f02be004f01be004f00be003600f900ab
:103cc000004006003600f800809fbe00829fbe00c4
:103cd000849fbe00869fbe003400f80000002000d4
:103ce000a00188000a00fa008460a900700020008a
:103cf00077010700000f78001e007800cf80de00fb
:103d0000ecf807000200200003ba230014f90700b2
:103d100010079800210798001e009000ae00900048
:103d200043f90700300798003e0090006dfd070042
:103d3000400798004e009000e10f40000a003a0052
:103d400010002000801f7800506f2900801f78002d
:103d500040702900801f7800706c2900801f780057
:103d600056f20700e88757000080fa003400f90097
:103d70004f03be004f02be004f01be004f00be0009
:103d80003600f900004006000000fa00e4000700d9
:103d90000080fa00000006000000fa000080eb003e
:103da0003c0107000080fa00000006000000fa0055
:103db0008460a9009460a800a06120001008880019
:103dc0000000eb000008880000032800200888009d
:103dd0000080fa00000006000000fa000080eb00fe
:103de000901688008660a9006200a8009660a8006e
:103df000d10a200091407800f0c8b30000c06000f4
:103e000001c4b30001407000ade0b7000080fa00cb
:103e1000000006003a00fa00881f7800deff070065
:103e2000edff0700e1ff07000000eb00a042880063
:103e300047fc0700200798002e009000e10f40008b
:103e40000b003a0010002000801f7800406a290013
:103e5000801f780000712900801f7800706c290095
:103e6000801f780015f20700e88757000000370030
:103e7000a0428000e10f5000fdff3a000000eb007f
:103e8000a0428800a0fc0700200798002e009000a8
:103e9000e10f40000b003a0020002000801f780056
:103ea00050712900801f780000712900801f780060
:103eb000706c2900801f780000f20700e887570027
:103ec000ebff37002e009000e8fc070000047800ac
:103ed0002e009000a9fc07008800780030fe070043
:103ee000300798001e0090001e005000e8004700b8
:103ef000801f78003e009000801f7800007329002a
:103f0000801f780001007800faf10700e68757006b
:103f100068004700ca0007005ffc07002007980000
:103f20002e009000d6fb070030fd07000000e000e7
:103f3000cfff320010002000a04288004efd070095
:043f4000cbff37007c
:020000040000fa
:103f4400500800000400000002000000000000000f
:103f54000000000000080000500000000000000005
:103f64005408000002000000000000005608000091
:103f740002000000000000001c0900000600000010
:103f840002000000040000000000000058080000c7
:103f94008800000002000000b808900008680800cb
:103fa4000000000000000000000000000002080003
:103fb40002028e00088f08008e088e00088e08000a
:103fc4008e087e00080000000000000000000000d1
:103fd40000000000000000000000000000000000dd
:103fe4000000020008010100b608b70008b6080086
:103ff400b608b60008b60800a608000000000000d5
:1040040000000000000000000000000000000000ac
:1040140000000000000000000100000000de0800b5
:10402400df08de0008de0800de08de0008ce080037
:10403400000000000000000000000000000000007c
:10404400000000000000000000000000000000006c
:10405400020900001200000002000000010002003a
:10406400000400000800100000000000202b2d00b8
:1040740023300000140900000800000002000000c2
:10408400686a6c00747a4c00000000002209000089
:104094000200000000000000e00800002200000010
:1040a4000200000030313200333435003637380036
:1040b40039616200636465006600300031323300a8
:1040c4003435360037383900414243004445460010
:1040d40000000000240900000200000000000000ad
:1040e4002609000002000000020000000100000098
:0440f40000000000c8
:020000040000fa
:1040f8000200fa00000f78000000eb0000088800ba
:104108009e00780000088000808f5000fcff3e0071
:104118000080fa00000006000000fa00f03b2800ca
:1041280000308800f03f2000103088001000200088
:10413800603088000003280020088800007d2000e7
:10414800ebff07000000eb00203088000000210092
:10415800403088000000eb00000888003000200094
:10416800e3ff0700c0002000403088003000200036
:10417800dfff0700100020004030880040062000c4
:10418800dbff070060002000403088004006200068
:10419800d7ff07000080fa00000006000400fa00bc
:1041a8001007980003c6bf0001c8b30001406000b3
:1041b8000004e000fbff3a001e0090002030880059
:1041c80040308000000f780003c6bf0001c8b3006c
:1041d800014060000004e000fbff3a00403080002e
:1041e8000000fb000080fa00000006000400fa004e
:1041f800000f7800214798000000eb00e7ff070058
:104208000004e000fcff350003c6bf0001c8b3008e
:10421800014060000004e000fbff3a001e00780047
:10422800203088002e4090000000fb0040308800bd
:104238000080fa00000006000200fa008e007800f4
:10424800800878000a0037000e0078001000780017
:10425800104178008e0078000e00780090017800f8
:10426800e18841008240780010002000dfff07004d
:104278000e00780010007800104078000004e0007c
:10428800f1ff3a000080fa00000006000200fa0080
:10429800000f78001e007800601988000000eb000d
:1042a800001988000000eb00801988000000eb006e
:1042b8001019880020f021002019880021e3a800a7
:1042c8000080fa00000006000200fa00000f7800e3
:1042d8001e007800401988002023a80005e1a800e6
:1042e8000000eb000008880001088000300620006c
:1042f800808f5000fcff36002023a90020c3bf0098
:10430800614060000004e000fcff320000188000fb
:084318000080fa00000006001d
:020000040000fa
:044320000000fe009b
:00000001FF
