:020000040000fa
:080000000002040000000000f2
:020000040000fa
:100400000f8020000e7f22000e01880000000000f7
:100410000c000700402e2000010020001100070002
:10042000000020000000e000020032000000020096
:1004300000000000c6020200000000000040da00d8
:100440000000fe004440a900000020000000e00081
:100450000300320000002000a00188004440a800f2
:100460000000060091018800800078000000eb0089
:1004700015003700e280400032a0b4009101ba00bc
:10048000e280400032a0b4009102ba00e280400055
:1004900032a0b4000002eb00472bde00f507b200eb
:1004a000602ce10004003a000059eb008301e900f0
:1004b000fdff3e00040037006128e100010032002a
:1004c0000082eb00040007001101ba000200e00006
:1004d000e8ff3a00000006003159ba008301e90044
:1004e0000c0032002159ba008301e90008003200f3
:1004f0000400e00003003a00e280400032a0b400b3
:10050000f5ff370011d9ba008301e900faff3a007c
:100510008100e800e180400032a0b4000000060045
:10052000809fbe00821f78003400f8000000200089
:10053000a00188000000fa00101680004200de00d2
:100540006140600000c0ea00614060000080fb0084
:10055000610060004200dd0012168000b1ff2f0034
:100560008100610000807000101688008460a9007e
:1005700080bb2000100888000080fa003400f900d9
:100580004f0178004f00be00004006000000fa0056
:1005900000ff2f0000168800c242a8000080eb0078
:1005a0006019880080bb2000100888000000eb0064
:1005b000000888000003280020088800ffff37009b
:0805c0000040da000000fe001b
:020000040000fa
:10000800e0020000e0020000e0020000e002000060
:10001800e0020000e0020000e0020000e002000050
:10002800e0020000e0020000e00200009002000090
:10003800e0020000e0020000e0020000e002000030
:10004800e0020000e0020000e0020000e002000020
:10005800e0020000e0020000e0020000e002000010
:10006800e0020000e0020000e0020000e002000000
:10007800e0020000e0020000e0020000e0020000f0
:10008800e0020000e0020000e0020000e0020000e0
:10009800e0020000e0020000e0020000e0020000d0
:1000a800e0020000e0020000e0020000e0020000c0
:1000b800e0020000e0020000e0020000e0020000b0
:1000c800e0020000e0020000e0020000e0020000a0
:1000d800e0020000e0020000e0020000e002000090
:1000e800e0020000e0020000e0020000e002000080
:1000f800e0020000e0020000e0020000e002000070
:10010800e0020000e0020000e0020000e00200005f
:10011800e0020000e0020000e0020000e00200004f
:10012800e0020000e0020000e0020000e00200003f
:10013800e0020000e0020000e0020000e00200002f
:10014800e0020000e0020000e0020000e00200001f
:10015800e0020000e0020000e0020000e00200000f
:10016800e0020000e0020000e0020000e0020000ff
:10017800e0020000e0020000e0020000e0020000ef
:10018800e0020000e0020000e0020000e0020000df
:10019800e0020000e0020000e0020000e0020000cf
:1001a800e0020000e0020000e0020000e0020000bf
:1001b800e0020000e0020000e0020000e0020000af
:1001c800e0020000e0020000e0020000e00200009f
:1001d800e0020000e0020000e0020000e00200008f
:1001e800e0020000e0020000e0020000e00200007f
:0801f800e0020000e00200003b
:020000040000fa
:10020800e0020000e0020000e0020000e00200005e
:10021800e0020000e0020000e0020000e00200004e
:10022800e0020000e0020000e0020000900200008e
:10023800e0020000e0020000e0020000e00200002e
:10024800e0020000e0020000e0020000e00200001e
:10025800e0020000e0020000e0020000e00200000e
:10026800e0020000e0020000e0020000e0020000fe
:10027800e0020000e0020000e0020000e0020000ee
:10028800e0020000e0020000e0020000e0020000de
:10029800e0020000e0020000e0020000e0020000ce
:1002a800e0020000e0020000e0020000e0020000be
:1002b800e0020000e0020000e0020000e0020000ae
:1002c800e0020000e0020000e0020000e00200009e
:1002d800e0020000e0020000e0020000e00200008e
:1002e800e0020000e0020000e0020000e00200007e
:1002f800e0020000e0020000e0020000e00200006e
:10030800e0020000e0020000e0020000e00200005d
:10031800e0020000e0020000e0020000e00200004d
:10032800e0020000e0020000e0020000e00200003d
:10033800e0020000e0020000e0020000e00200002d
:10034800e0020000e0020000e0020000e00200001d
:10035800e0020000e0020000e0020000e00200000d
:10036800e0020000e0020000e0020000e0020000fd
:10037800e0020000e0020000e0020000e0020000ed
:10038800e0020000e0020000e0020000e0020000dd
:10039800e0020000e0020000e0020000e0020000cd
:1003a800e0020000e0020000e0020000e0020000bd
:1003b800e0020000e0020000e0020000e0020000ad
:1003c800e0020000e0020000e0020000e00200009d
:1003d800e0020000e0020000e0020000e00200008d
:1003e800e0020000e0020000e0020000e00200007d
:0803f800e0020000e002000039
:020000040000fa
:0405c800000000002f
:00000001FF
