:020000040000fa
:080000000002040000000000f2
:020000040000fa
:100400000fad2000007f22000001880000000000e6
:100410000c000700603821000100200011000700d7
:10042000000020000000e000020032000000020096
:1004300000000000be140200000000000040da00ce
:100440000000fe004440a900400620000000e0003b
:100450000300320000002000a00188004440a800f2
:100460000000060091018800800078000000eb0089
:1004700015003700e280400032a0b4009101ba00bc
:10048000e280400032a0b4009102ba00e280400055
:1004900032a0b4000002eb00472bde00f507b200eb
:1004a000602ce10004003a000059eb008301e900f0
:1004b000fdff3e00040037006128e100010032002a
:1004c0000082eb00040007001101ba000200e00006
:1004d000e8ff3a00000006003159ba008301e90044
:1004e0000c0032002159ba008301e90008003200f3
:1004f0000400e00003003a00e280400032a0b400b3
:10050000f5ff370011d9ba008301e900faff3a007c
:100510008100e800e180400032a0b4000000060045
:100520009c02040000000000760b040000000000a4
:100530000000040000000000889fbe0080047800d6
:100540000100780002047800890178001100200081
:100550000e000700880f5000010032008004eb00fd
:10056000090078004f04be00000006000000fa00f9
:100570004fb99700e881570081832000c0292000ef
:10058000570007000080fa0000000600889fbe00a8
:100590008a9fbe008c9fbe008e1f78008106780067
:1005a00083047800000678000288b900000778000c
:1005b0000000e00002003a0000017800420037002d
:1005c0000d00e0004000320000057800c9009000f6
:1005d00069009000808f5000040039000900780005
:1005e000f80007000000e00029003500004020006e
:1005f0001900600003003a000a04780080057800c2
:100600000b0037000a017800a10020000c007800e0
:100610002f010700800578000000e00002003a008a
:100620000a047800020037000c0050000004e800c3
:10063000c90190006900900003005000880f50002d
:1006400002003100000478008005eb00080178000a
:100650008c00780003007800270107000806460098
:10066000080555004900900000004400c0049800af
:100670000b00e000040032000900780025010700ab
:100680000000e00002003a000a00e000cfff3a005c
:10069000008020001900600002003200090078008c
:1006a0001c01070000c02000190060000200320099
:1006b00049009000e00498000a005700110009006a
:1006c0000d80d80000017800020078004f07780004
:1006d0004f06be004f05be004f04be0000000600de
:1006e0006200fa00889fbe008a9fbe000004be0020
:1006f000020578008300780060f92f000f004000a9
:100700004101070088979f0099979f000000eb0028
:10071000a09f9f009a4578000b80fb000000ea0034
:10072000cf04de0050c2b30080cf5500020032007b
:1007300009047800010037000904e9000800e0001e
:100740000b0034001f909700080178008a007800a1
:100750008f9197000300010090979f000000e00038
:10076000930032002f98970000004400a09f9f0044
:100770000905450050c2b30080cf55000400320087
:100780000b04e000e3ff3a002f9897008900370040
:100790000000eb00809f9f00f0979f00e0979f0074
:1007a000d0979f00c0979f00b0979f00c09f9f0069
:1007b00009003700608b20000080500000004000de
:1007c000a18a2000e10078004f9897000100700096
:1007d000c09f9f000a05e8001a4478008800fb00cb
:1007e000608b20000d010700800078000000e00011
:1007f000f0ff3a00a0c2b300804f54000e003a0050
:10080000bf8897000180e900b08f9f00100078003a
:10081000b09f9f000000e00005003d000000ea00de
:10082000b09f9f004f9897000020a000c09f9f009e
:100830000a05e80010003700b19f9f00090037004b
:10084000bf989700f0ff2700808f5000040032000f
:100850006a08b9000000410003004000b09f9f00fb
:100860000a05e8001a01fb0003fd2f000300410008
:10087000e90f5000f2ff3600e0c2b3009a4f1000bb
:10088000040032000080eb00909f9f008a047800f3
:100890001c0037008a04e800a0c2b300994f100082
:1008a00007003a00bf8897000180e900b08f9f00e1
:1008b00010007800909f9f008a84e80011003700a4
:1008c0000000eb00909f9f00090037009f98970061
:1008d000f0ff2700808f5000040032006a08b90042
:1008e0000000410003004000909f9f008904e80041
:1008f0001901fb0003fd2f0003004100e90f500028
:10090000f2ff3600194478008800fb00c08b2000fd
:10091000c20007000000e00002003a000044780036
:10092000010037008904e800a87f9f0080c6b3005b
:10093000804f540004003a00994f14000a003a0016
:100940006640500006003700c0c6b300804f540018
:1009500005003a00994f140003003a00654040003a
:10096000a07f9f008904e8000905e800cbfb2f0069
:100970008f8545001901fb0060f92f000f00400032
:100980000084e8008b01780080007800080078007f
:10099000ab0007000000e00005003a008b00780083
:1009a00008007800e90107000000e00059ff3d0061
:1009b0000080eb004f05be004f04be000080fa002f
:1009c00000000600889fbe0000047800c00190006f
:1009d000600090008000eb00808f510039003900ea
:1009e000180178002000290000006100e20f50008b
:1009f00007003200002020000200e0000100350066
:100a000000202400000c71008080eb002d003700d6
:100a10000100260001006100810f500008003a002b
:100a200038009000808f51000500390008007800e0
:100a3000380007008080eb000000e00021003a0051
:100a400000c020001800600017003a00a8049000c1
:100a50006002200008004000808f540012003a001d
:100a60000020200083020700800078002004980006
:100a70000000e00005003a002904980049049800ad
:100a80000900e80030049800060037001860a00054
:100a9000400498000020b00030049800410c9800f9
:100aa000510c9800c50207002800900050049800df
:100ab000380090006004980000002600180c7000b8
:100ac0008000eb00010078004f04be00000006002b
:100ad0008001eb00040037008301e80090cf100094
:100ae000040032000000e800828f5100faff3a0053
:100af0000000eb00000006008001eb000200370060
:100b000061f079008301e800828f5100fcff3a0018
:100b100000000600889fbe00000478000000e0008e
:100b20000e003a0080047800088020001800780049
:100b30000000e00004003200f6ff07000000e000c3
:100b400001003d008084eb000884e8000081200063
:100b5000800f540029003200f4ff3700000022000b
:100b60001800600024003200a8049000080037003c
:100b700009015000384090000000fb008900780017
:100b8000c20407000000e000130034008084440029
:100b900048009000808f5400f5ff39002800900035
:100ba000400498001801780000c020000000610097
:100bb00002003200a800900001003700b800900049
:100bc00000002400000061000a0032006104980067
:100bd0008004eb00090037002800900040049800d2
:100be00060049800500c98001890a0008084eb00de
:100bf00002003700510c980080047800090078004a
:100c00004f04be00000006000200fa00f1bf9f0082
:100c1000010878000080fa00000006000400370098
:100c20000204e00001003a00000005000000e800b6
:100c300010417800814f5100f9ff3a000000060092
:100c4000889fbe008a1f78000004780001027800a7
:100c50008244780003057800e0c6b300804f51005d
:100c6000d200320015003c006b405000804f510014
:100c7000240032000a003c0070405000804f5100b8
:100c80000f01320065404000804f51007400320077
:100c900050c2b300804f510020013a001c013700c0
:100ca00040c6b300804f51001b0032006540400039
:100cb000804f510019013a001700370030c7b300c8
:100cc000804f5100fe00320007003c00644050009d
:100cd000804f5100620032000040e800804f510018
:100ce0000e013a00e700370050c7b300804f5100b3
:100cf0005b00320063404000804f510007013a0022
:100d0000570037009180e900010a780078009000d0
:100d10009171780007013700a8609000c0c6b30049
:100d200080cf50000a003a009400780064805000a0
:100d3000000a78001000be004f89de00cf91de006f
:100d40000002be000203780082037800130037001f
:100d500010c7b30080cf500003003200a0c6b3001c
:100d600080cf500006003a00940078006880500060
:100d7000000a78003002be002003be0007003700e2
:100d80001480e900000a7800100078000002780062
:100d9000cfa2de000503780086037800049cbe0025
:100da0000694be00a860900080c6b30080cf5000bb
:100db0000e00320020c6b30080cf500005003a007c
:100dc0000400fb00cf80de00010178008201780082
:100dd0000a00370040c7b30080cf50000300320044
:100de0006640400080cf500006003a0004007800c2
:100df000cf80de000101780082017800009cbe00f7
:100e00000294be003800be002801be00e00f500072
:100e1000e08f5800e00f5900e08f590003003d00bb
:100e200078009000d1c2b3000a003700081090008b
:100e30000018a3000300320078009000b1c2b30094
:100e4000040037000008a30053003200780090002f
:100e500001c2b300017578000000e8004d003700c2
:100e6000a8609000c0c6b30080cf500006003a00d2
:100e70009400780064805000000a78001002be00e0
:100e80006033b8001300370010c7b30080cf5000a4
:100e900003003200a0c6b30080cf500006003a0025
:100ea0009400780068805000000a78003002be008c
:100eb0002003be00070037001480e900000a780014
:100ec00010007800000278000500200006002000d5
:100ed00007002000049cbe000694be00a86090009d
:100ee00080c6b30080cf50000e00320020c6b30091
:100ef00080cf500005003a000480fb000100200074
:100f000002002000030020000a00370040c7b300a1
:100f100080cf5000030032006640400080cf500078
:100f200006003a00040078000100200002002000c2
:100f300003002000009cbe000294be000810900038
:100f40000038a300140032003800be002801be00a3
:100f5000e00f5000e08f5800e00f5900e08f59007b
:100f60000d00320080c7b30080cf54000300320070
:100f700080c5b30080cf540007003a00780090008d
:100f800001c3b300017578008000e80009f578001e
:100f90000080e80070049800780090000000450090
:100fa000600498008940780042003700a8609000f3
:100fb000c0c6b30080cf5000250032000a003c00bc
:100fc0006440500080cf50002800320000c0e8008c
:100fd00080cf5000140032006840500080cf500095
:100fe00022003a000a00370040c7b30080cf50000b
:100ff0001e0032006640400080cf50001b003200cf
:101000006940500080cf500018003a0006003700b9
:101010001480e900000a780010007800485c900015
:1010200008487800450037001480e900000a78007d
:101030001002780068089000cf80de00010178007f
:1010400082017800009abe000292be003b00370089
:101050001480e900000a7800100178006808900008
:10106000cf80de000089be00340037001480e90024
:10107000000a780010007800680c900008087800da
:101080002e0037001180e9008008780010007800f9
:10109000cf80de000101780082017800009cbe0054
:1010a0000294be00780090000000450060049800a3
:1010b00081c7b30008007800980107001f003700bf
:1010c0001480e900000a780010007800600498009d
:1010d000580990000200e00002003d001c030700d8
:1010e000090037008000eb0079fe070080007800df
:1010f0000000e00003003200680090000080500013
:101100000100370058089000100c98000b003700c1
:101110007800900002757800060037007800900093
:10112000800045000904e00001003a0059c2b30004
:10113000894878000000e800700498000000eb0087
:101140004f0578004f04be00000006000400fa00be
:10115000889fbe008a9fbe008c1f78000004780024
:101160000106780070089000f8009000010050001f
:10117000880890000100500098089000010050007d
:10118000a808900001005000b8089000010050002d
:10119000c8089000810550000002220090bf9f0007
:1011a00000032300a0bf9f00081090000028a300a8
:1011b00018003a000b00e000160034008b047800a1
:1011c00009057800e28f5400020036002a00200052
:1011d000020037000900e0000b00340058009000c6
:1011e000c80190000a017800ee805700030001005a
:1011f000500498000000e00096003200680890005b
:1012000000004500600c98008a8454004240a90008
:10121000ebff3c00780190000200e0000b0034007e
:1012200058009000c80190008c0078000300010075
:10123000500498000000e00086003200680890002a
:10124000f800900001004000600c9800880c9000ad
:101250000900e0001500340009057800e28f540011
:10126000020036002a002000020037000900e000da
:101270000b00340058009000c80190000a0178006b
:10128000ec80570003000100500498000000e000cb
:10129000700032006808900000004500600c980063
:1012a0008a8454004240a900ebff3c0018099000da
:1012b0000200e0000b003400e800900058009000ad
:1012c000c801900003000100500498000000e000f5
:1012d000600032006808900098089000010040000b
:1012e000600c9800a80c90000900e0001500340084
:1012f00009057800e28f5400020036002a00200021
:10130000020037000900e0000b0034005800900094
:10131000c80190000a017800ec805700030001002a
:10132000500498000000e0004a0032006808900075
:1013300000004500600c98008a8454004240a900d7
:10134000ebff3c00380990000200e0000d00340083
:10135000e80090001808900080804000580090003d
:10136000c801900003000100500498000000e00054
:101370003800320068089000b80890000100400072
:10138000600c9800c80c90000900e00015003400c3
:1013900009057800e28f5400020036002a00200080
:1013a000020037000900e0000b00340058009000f4
:1013b000c80190000a017800ec805700030001008a
:1013c000500498000000e0002200320068089000fd
:1013d00000004500600c98008a8454004240a90037
:1013e000ebff3c00081090000028a3001b00320017
:1013f0000b00e000190034008b0478000905780028
:10140000e28f5400020036002a002000020037005c
:101410000900e0000b00340058009000c801900063
:101420000a017800ee805700030001005004980084
:101430000000e0000700320068089000000045004e
:10144000600c98008a8454004240a90003003400d4
:10145000eaff37000080eb00010037000000eb00de
:101460004f0678004f05be004f04be000080fa0012
:1014700000000600889fbe00e30440000900a100b0
:10148000808f54004a003600e38f540001003e0074
:1014900049002000324680000200e00002003200d5
:1014a000820078000c003700818c20000300370098
:1014b000908f5400230036008080e80011007800ef
:1014c0000000e000faff3a000f003700908f540050
:1014d0001c0036008080e800110078000000e00069
:1014e000faff3a0012017800818c200003003700d7
:1014f000908f5400130036008080e80011007800bf
:10150000820f5000faff3a0028468000890f5400ed
:101510000100310009047800080078001302070078
:101520000000e00004003a00890f5400200032005f
:101530000804d100f5ff37000818780012020700f0
:10154000d4ff3700110178009201780064805100c7
:10155000890f5000030031001200900080087800cd
:1015600007003700090041008008780092019000d0
:1015700013009800110078001288140009097800ff
:10158000910078000100e000050032001100900099
:101590000000e000020032000180e8000100370096
:1015a0000000eb00304688000280e80001003700b0
:1015b0000000eb004f04be0000000600881f78000a
:1015c000a88c20001804e00004003a0060b7200056
:1015d0002102070020c0b300004c78004f047800bf
:1015e00000000600889fbe000004780049fd070047
:1015f000800478000004200018006000020032001f
:1016000028009000e00107000000eb002004980093
:10161000384090000004e000050035000000fb00a9
:101620004e0207000000e000010032008084eb0061
:10163000181090000000e00008003200500207007f
:101640000000e000010032008084eb0018109000e0
:10165000cd0107000000eb001014980000082000e6
:1016600018006000100032000000eb000180200034
:10167000910f1400070032000000e8008180e800ac
:10168000e80f5000faff3a0008007800be0107009a
:1016900013003700000140008000eb0000802000b4
:1016a00001307900f8ff3700000c780000c0eb0033
:1016b0003044980060022000080040002004980098
:1016c0004004980050049800400c98006004980072
:1016d000500c98007004980076004400000c9800ac
:1016e000090078004f04be0000000600881f780043
:1016f000e8802000180078000000e00001003200bf
:10170000b8ff07000884e900e07f2000800f540044
:10171000f8ff3a004f047800000006002f03b000e5
:10172000889fbe008a9fbe008c9fbe008e1f7800df
:101730000007780090892000c0b79f0080c5b300e3
:1017400080cf50000800320082882000c2b79f007e
:101750007740400080cf500003003a008300200013
:10176000b3b79f000a00370080c7b30080cf500096
:1017700005003200a4002000b4b79f0080c5b3006c
:1017800080cf500002003a0005012000b5b79f004d
:101790003e04be002e05be0040c6b30080cf500000
:1017a000030032006540400080cf50000b003a003b
:1017b000e00f5400e08f5c00e00f5d00e08f5d0003
:1017c00006003d006000b8006011b8000804500039
:1017d000898458000a0559008b8559003fb197004c
:1017e000e80f510003003200f00f510045003a00ad
:1017f000020037003c002000010037004c002000b0
:10180000e00f5400e08f5c00e00f5d00e08f5d00b2
:1018100005003a005e08900083012000a3b79f00f6
:101820000000e000080032003fb297000400e90029
:1018300008006000cfb297006540780090df9f00fd
:1018400070012000a0b79f008c0078008100e900a3
:10185000050033008b05d1000a85d3008984d300ad
:101860000884d300f9ff3700089fbe000a97be0026
:101870002fb197000200e90023fc2f008f81410067
:1018800000844100140037002fb097000000e900e9
:10189000a0b79f003fb197000200e900040060007c
:1018a000cfb19700635478003e00be002e01be0009
:1018b0000c0278000402e900050033008381d100a6
:1018c0000281d3008180d3000080d300f9ff37006c
:1018d000009fbe000297be003e02be002e03be0067
:1018e000e00f5200e08f5a00e00f5b00e08f5b00da
:1018f000da0034002fb097000000e000e2ff3c0067
:10190000d6003700ae60900080c6b30080cf500094
:101910000b00320006003c000104e0000800320029
:101920006640500080cf500073003a00040037003a
:10193000c0c6b30080cf50006f003a0031003700be
:10194000080178000800e00005003a005e089000f9
:1019500081012000a1b79f000000e00009003200d3
:10196000bfb19700110009000381d8008000fd007d
:101970004fb297006440780090df9f00750120000f
:10198000a5b79f003fb29700110009000481d8005d
:1019900080017800afb297000500e90021fc2f001c
:1019a0008f804000008240000c003700bfb29700db
:1019b000110009008501d800000178002fb09700c0
:1019c0000000e900a0b79f000590b9000080510019
:1019d000cfb0970061527800820178000300e000e8
:1019e000030034002fb197000200e000efff3c003d
:1019f00003007800cf80de000101780082017800ca
:101a00003a0037000806be00e00f5400e08f5c008b
:101a100005003a005e08900083012000a3b79f00f4
:101a20000000e000090032003fb297006121b900d8
:101a30000c00be0086010700cfb297006540780019
:101a400090df9f0070012000a0b79f003fb2970079
:101a50006121b9000c00be00800107000006be0035
:101a6000afb297000500e90021fc2f008f804000f5
:101a70008080400091b79f00110037003fb1970070
:101a80006114b9000801be000c00be00830107000c
:101a90000005be00afb197008301e900a3b79f0026
:101aa0000801be0064010700000056001fb2970045
:101ab000cfb297006552780094b79f000a06be0027
:101ac000e00f5600e08f5e00030034002fb0970057
:101ad0000000e000e9ff3c004feade00cfa2de009c
:101ae0000c00be000401780084017800009fbe0055
:101af0000297be0059003700e00f5400e08f5c00f1
:101b0000e00f5d00e08f5d0005003a005e08900088
:101b100081012000a1b79f000000e0000d0032000d
:101b20003fb1970002027800cfa2de0005037800e3
:101b3000860378000800be000a01be00e701070026
:101b40004fb297006440780090df9f00750120003d
:101b5000a5b79f003fb1970002027800cfa2de0038
:101b600005037800860378000800be000a01be0065
:101b7000d3010700009fbe000297be00afb19700df
:101b80000300e90024fc2f000f024200000642007f
:101b900024003700bfb2970005047800cfc4de00f0
:101ba000090578008a0578000802be000a03be0015
:101bb0005fa89700efa897007fa997008fb19700c3
:101bc000ca010700d0b79f00e1b79f00f2b79f009e
:101bd00083bf9f002fb097000000e900a0b79f00cf
:101be0000802be000a03be005fb09700efb0970086
:101bf0007fb197008fb99700420207005faa970054
:101c000000005200cfb29700655678005fb0970091
:101c1000efb097007fb197008fb99700009fbe008b
:101c20000297be003e00be002e01be00d0af9f0056
:101c3000e1af9f00f2af9f0083b79f00e00f50001d
:101c4000e08f5800e00f5900e08f59000300340086
:101c5000afb097000100e000ceff3c003fb197001d
:101c6000e80f510013003a000e1090000038a30056
:101c700010003200afb19700f78f510006003e0010
:101c800024fc2f000f0242008300420000c3b30077
:101c9000914f100007003200afb297008502e900b3
:101ca000a5b79f0000c3b30021fc2f008f80400028
:101cb00080f07a00afb1970078811100120f980080
:101cc0006e00900024fc2f000f02420083004200af
:101cd00089fb07001e0990005e089000800f5100ec
:101ce00006003d0002005000000f98000e1090000a
:101cf0000040a100001798000f0037000000e0002e
:101d00000d003d000e10900074006000f00f5000b8
:101d100009003a007e089000fe009000010050008b
:101d20008e08900001005000020050004240a900bf
:101d300001003400000f98004f0778004f06be00e6
:101d40004f05be004f04be002f03b1000000060087
:101d500080007800010037000000e8001004e00077
:101d6000fdff3a0001005000000006000000e00006
:101d7000030034008b000700e10f400001003a002f
:101d80000000eb00000006000000e000310032001f
:101d90008080e90091027800e38f52002d00360028
:101da0000508a3002b003a00424680000200e00034
:101db00002003200828f50000400310002087800d7
:101dc0004146880016003700030178009201900018
:101dd0000300e00002003200818f5100faff390059
:101de0001202780004004100808f50001900390071
:101df000810f500003003a0005094200820078007c
:101e0000070037000300e0000300320005804000b7
:101e1000808f51000f003900930098001101980045
:101e2000110190000200e0000a0032001180400021
:101e3000820f500007003a00608c20000008eb0081
:101e400011009000110178009008410010009000ee
:101e500090009800000006000001780000002000bb
:101e60000000e00008003200000080000000e000f8
:101e7000050032000000e90000008800000040007a
:101e80000100800002b07800000006000a00fa009d
:101e900080017800e20f500025003e00604680007f
:101ea000e10f500008003200802320000000e00015
:101eb00005003200042320002523200046232000b3
:101ec0008001780004003700042220002522200031
:101ed0004622200083222000144090000004e000ed
:101ee000030035008009eb0000002800140a700090
:101ef000154090000028a30001003a0015a0a000a2
:101f00008001eb0007003700154090000008a30097
:101f1000fdff320063c078000000fb00000b78007a
:101f20008301e800828f5100f7ff3a000800370074
:101f300030002000b0bf9f00c3bf9f00d1bf9f00f3
:101f4000e2bf9f006a80570000c0da006fb99700b7
:101f5000020078000080fa00000006000a00fa0083
:101f600011002000b1bf9f00c0bf9f006a805700d2
:101f700000c0da004fb897000080fa0000000600a9
:101f80000a00fa0051002000b1bf9f00c0bf9f00af
:101f90006a80570000c0da005fb897000080fa003e
:101fa00000000600889fbe00800478007046800014
:101fb0000000e00003003a00100007000000e0000d
:101fc0000a003500704680000900e00002003a0077
:101fd0000004780006003700000478000900400083
:101fe000060007000000e00001003d000084eb0057
:101ff000080078004f04be00000006008000780052
:102000000000e00004003a00008d200070468800c7
:1020100001017800060037000081eb0000ad2000d0
:10202000808f500002003e00714688000001eb00e6
:102030000200780000000600020ab900001bb90087
:102040000200b80081004200810043000000060049
:10205000020007000400be00000006006022b80075
:10206000060220000000d0008180d2000482d2004d
:102070008582d2000000a0000202520083825a0032
:10208000030031000202420083824a000000a100e6
:102090000603e900f3ff3a0000000600839f680092
:1020a0000100e00002003d0060001000e080180028
:1020b0000300e00002003d0060011100e081190012
:1020c000e6ff07004f00e00002003b006000100048
:1020d000e080180000000600881f780000047800e7
:1020e0005001be004000be00040040008580480052
:1020f0000601490087814900009cbe000294be0091
:102100000400e1000588e1000690e1000798e10085
:1021100002003100680044001008e8004f04780015
:1021200000000600f4874700889fbe008a9fbe001b
:102130008c9fbe008e1f78000205be000004be000a
:10214000d4b79f00e5b79f00f6b79f0087bf9f00f9
:102150000000eb00c0b79f00b0b79f00a0b79f0082
:1021600090b79f0080b79f000d042000bfb097007c
:102170004fb09700000140000000e0000f003d005c
:102180004f08de0000007100c0b79f009e000700ee
:1021900001003d0012002000a100070001003d00e9
:1021a00012002000a6000700b1000700b6000700db
:1021b0000f004000c8ff0700220037004f08de0074
:1021c00000067100ccb79f008f00070001003d00a2
:1021d000120020009200070001003d0012002000c4
:1021e00097000700a20007000fb297009fb2970068
:1021f0002fb39700bfb39700a9000700000052005b
:1022000081805a0002015b0083815b0080b79f00e0
:1022100091b79f00a2b79f00b3b79f000007eb00e4
:102220009f0007000020e10001a8e10002b0e100ea
:1022300003b8e100010031001e0020000e0056002e
:10224000c0b79f004fb297000400e00007003500c0
:1022500010002000010020006011b8000804700088
:10226000898470000a0571008b8571008d06e90074
:10227000beff3a000400e00003003d0082000700ba
:102280000f00400094ff07004fa897000000e000f7
:1022900004003a000fb497009fb497002fb5970041
:1022a000bfb59700940007004f0778004f06be00a7
:1022b0004f05be004f04be004f01b10000000600f4
:1022c000881f780018002000881f780095ff0700fd
:1022d0008f87e9004f04780000000600801feb00a4
:1022e00090ff07008f87e90000000600889fbe006e
:1022f0008a9fbe008c1f78006e00070007003d001b
:1023000073000700e00f5b00e08f5b0007003d00fb
:10231000320007000006eb0004003700340007001d
:1023200002003d002a0007001c0020007200070088
:10233000e3ff07000203be000002be000c00e00045
:1023400001003200220007000400be000601be00aa
:102350004f0678004f05be004f04be000000060087
:10236000889fbe008a9fbe008c1f78005100070026
:1023700005003d0056000700e00f5b00e08f5b00aa
:1023800006003d00040037001900070003003d006f
:102390006000b8006011b800100007005600070088
:1023a000ceff07000203be000002be000c00e000ea
:1023b00001003200060007000400be000601be0056
:1023c0004f0678004f05be004f04be000000060017
:1023d0006000b8006011b80000003700040250002f
:1023e00085825800060359008783590000000600c3
:1023f0000006eb00e00f5200e08f5a00e00f5b0098
:10240000e08f5b00000006000180400090b79f0055
:102410000001eb008fb097000100e0000000060013
:102420000200700090b79f000180400080b79f00bd
:102430000001eb00ffa897000100e000000006008b
:102440000200700080b79f00018040006faa9700d3
:10245000cf20de0001007000f0af9f0004024200b8
:10246000250007004f18de00000272000000060081
:10247000e4af9f000804440089844c000a054d0025
:102480008b854d00000006003fb29700cfb2970049
:102490005fb39700efb3970000fe2f000000060027
:1024a0003fb09700cfb097005fb19700efb19700b2
:1024b000000006000205be000004be00e00f500050
:1024c000e08f5800e00f5900e08f5900000006002f
:1024d0006000b8006011b8000804500089845800fa
:1024e0000a0559008b8559001c002000e00f52009e
:1024f000e08f5a00000006000800be000a01be007e
:1025000000000600889fbe008a9fbe008c1f7800d6
:102510000205be000004be000006eb00e00f500004
:10252000e08f5800e00f5900e08f590007003d0090
:102530006000b8006011b800080450008984580099
:102540000a0559008b8559001c002000e00f52003d
:10255000e08f5a00e00f5b00e08f5b0002003d005f
:102560000f0007000c00a2000800be000a01be0018
:10257000120007000203be000002be000c00e000d3
:1025800001003200060007000400be000601be0084
:102590004f0678004f05be004f04be000000060045
:1025a0006000b8006011b800040250008582580035
:1025b000060359008783590000000600889fbe006b
:1025c0008a9fbe008c9fbe000404b8000506b800b8
:1025d0008904460060854e000606b8000a054600dc
:1025e000e0854e000706b8008b054600040eb800d3
:1025f000890446000a854e00e0854d00050eb800ae
:102600000a0546008b854e00060eb8008b05460075
:102610000416b8000a0546008b854e000516b80062
:102620008b054600041eb8008b0546000800be005e
:102630000a01be004f06be004f05be004f04be009b
:042640000000060090
:020000040000fa
:020000040002f8
:04aff8009efa0000bd
:020000040000fa
:10000800d8140000d8140000d8140000d814000038
:10001800d8140000d8140000d8140000d814000028
:10002800d8140000d8140000d8140000d814000018
:10003800d8140000d8140000d8140000d814000008
:10004800d8140000d8140000d8140000d8140000f8
:10005800d8140000d8140000d8140000d8140000e8
:10006800d8140000d8140000d8140000d8140000d8
:10007800d8140000d8140000d8140000d8140000c8
:10008800d8140000d8140000d8140000d8140000b8
:10009800d8140000d8140000d8140000d8140000a8
:1000a800d8140000d8140000d8140000d814000098
:1000b800d8140000d8140000d8140000d814000088
:1000c800d8140000d8140000d8140000d814000078
:1000d800d8140000d8140000d8140000d814000068
:1000e800d8140000d8140000d8140000d814000058
:1000f800d814000044140000d8140000d8140000dc
:10010800d8140000d8140000d8140000d814000037
:10011800d8140000d8140000d8140000d814000027
:10012800d8140000d8140000d8140000d814000017
:10013800d8140000d8140000d8140000d814000007
:10014800d8140000d8140000d8140000d8140000f7
:10015800d8140000d8140000d8140000d8140000e7
:10016800d8140000d8140000d8140000d8140000d7
:10017800d8140000d8140000d8140000d8140000c7
:10018800d8140000d8140000d8140000d8140000b7
:10019800d8140000d8140000d8140000d8140000a7
:1001a800d8140000d8140000d8140000d814000097
:1001b800d8140000d8140000d8140000d814000087
:1001c800d8140000d8140000d8140000d814000077
:1001d800d8140000d8140000d8140000d814000067
:1001e800d8140000d8140000d8140000d814000057
:0801f800d8140000d814000027
:020000040000fa
:10020800d8140000d8140000d8140000d814000036
:10021800d8140000d8140000d8140000d814000026
:10022800d8140000d8140000d8140000d814000016
:10023800d8140000d8140000d8140000d814000006
:10024800d8140000d8140000d8140000d8140000f6
:10025800d8140000d8140000d8140000d8140000e6
:10026800d8140000d8140000d8140000d8140000d6
:10027800d8140000d8140000d8140000d8140000c6
:10028800d8140000d8140000d8140000d8140000b6
:10029800d8140000d8140000d8140000d8140000a6
:1002a800d8140000d8140000d8140000d814000096
:1002b800d8140000d8140000d8140000d814000086
:1002c800d8140000d8140000d8140000d814000076
:1002d800d8140000d8140000d8140000d814000066
:1002e800d8140000d8140000d8140000d814000056
:1002f800d814000044140000d8140000d8140000da
:10030800d8140000d8140000d8140000d814000035
:10031800d8140000d8140000d8140000d814000025
:10032800d8140000d8140000d8140000d814000015
:10033800d8140000d8140000d8140000d814000005
:10034800d8140000d8140000d8140000d8140000f5
:10035800d8140000d8140000d8140000d8140000e5
:10036800d8140000d8140000d8140000d8140000d5
:10037800d8140000d8140000d8140000d8140000c5
:10038800d8140000d8140000d8140000d8140000b5
:10039800d8140000d8140000d8140000d8140000a5
:1003a800d8140000d8140000d8140000d814000095
:1003b800d8140000d8140000d8140000d814000085
:1003c800d8140000d8140000d8140000d814000075
:1003d800d8140000d8140000d8140000d814000065
:1003e800d8140000d8140000d8140000d814000055
:0803f800d8140000d814000025
:020000040000fa
:102644005f4900004e540000334900006e740000de
:10265400657200007275000070740000004500008f
:102664006e74000065720000206900006e74000042
:102674006f2000005b250000735d000020660000f1
:10268400756e000063740000696f00006e2e000018
:102694002e2e00000a20000000200000504f0000f1
:1026a4005254000041320000203d00002000000090
:1026b4005b250000735d000020660000756e00005d
:1026c40063740000696f00006e2e00002025000076
:1026d400732000003d2000002564000028680000ed
:1026e400657800003d300000782500003038000097
:1026f40058290000200a0000200000006d6100003d
:08270400696e000000000000f6
:020000040000fa
:10270c00000800008800000002000000600838008b
:10271c00081008000000000000000000000000008d
:10272c00000208000202360008370800360836009e
:10273c0008360800360826000800000000000000db
:10274c00000000000000000000000000000000007d
:10275c000000000000000200080101005e085f009c
:10276c00085e08005e085e00085e08004e08000067
:10277c00000000000000000000000000000000004d
:10278c00000000000000000000000000010000003c
:10279c0000860800870886000886080086088600e0
:1027ac000876080000000000000000000000000097
:1027bc00000000000000000000000000000000000d
:1027cc0000000000aa080000120000000200000037
:1027dc0001000200000400000800100000000000ce
:1027ec00202b2d0023300000bc0800000800000046
:1027fc0002000000686a6c00747a4c000000000053
:10280c00c4080000060000000200000004000000e4
:10281c0000000000ca0800000200000000000000d8
:10282c008808000022000000020000003031320055
:10283c003334350036373800396162006364650023
:10284c006600300031323300343536003738390009
:10285c00414243004445460000000000cc08000003
:10286c00020000000200000001000000ce08000081
:0c287c000200000000000000000000004e
:020000040000fa
:102888003600f800809fbe00829fbe00849fbe0075
:10289800869fbe003400f80000002000a0018800d8
:1028a8000000fa0020322900801f78001033290028
:1028b800801f78002bf70700e48757008aa0a9003b
:1028c800c2c2bf000080fb004200de006140600021
:1028d80000417800024078000080ea008180ea0028
:1028e80061406000614060004201dd00212c200051
:1028f80091407800b0cfb30000c060000240700083
:10290800c2e2b700c2c2bf000080fb004200de0086
:10291800614060008080fb00c2c2bf000080fb00f5
:102928004200de00614060000080fb00811f7800eb
:10293800801f7800f0342900801f78002032290099
:10294800801f7800a0352900801f780005f7070050
:10295800ea8757000080fa003400f9004f03be00f0
:102968004f02be004f01be004f00be003600f90006
:10297800004006000000fa0000382900801f780097
:1029880010332900801f7800f6f60700e487570007
:1029980000ff2f0000168800c242a8008aa0a900e4
:0829a8009aa0a800ffff370010
:020000040000fa
:0429b0000000fe0025
:00000001FF
