:020000040000fa
:080000000002040000000000f2
:020000040000fa
:100400002f802000007f22000001880000000000f3
:100410000c00070020492000010020001100070007
:10042000000020000000e000020032000000020096
:100430000000000052040200000000000040da004a
:100440000000fe004440a900000020000000e00081
:100450000300320000002000a00188004440a800f2
:100460000000060091018800800078000000eb0089
:1004700015003700e280400032a0b4009101ba00bc
:10048000e280400032a0b4009102ba00e280400055
:1004900032a0b4000002eb00472bde00f507b200eb
:1004a000602ce10004003a000059eb008301e900f0
:1004b000fdff3e00040037006128e100010032002a
:1004c0000082eb00040007001101ba000200e00006
:1004d000e8ff3a00000006003159ba008301e90044
:1004e0000c0032002159ba008301e90008003200f3
:1004f0000400e00003003a00e280400032a0b400b3
:10050000f5ff370011d9ba008301e900faff3a007c
:100510008100e800e180400032a0b4000000060045
:10052000889fbe008a9fbe00010578000100e000a0
:100530000400350008003c000000e000200032000c
:100540000500370060001000e080180002003b004a
:1005500001f02c001a0037000004be006011b80042
:100560006b0920000982cf00020039000882cf0009
:100570000441b000694252000e00320008003b0006
:1005800082817100610164008904d1000884d30074
:100590008b05e8000442e800f9ff3a000500370047
:1005a0000804440089844c008b05e9000442e900fa
:1005b000fbff3a00390007000af0a70001f0a00095
:1005c0004f05be004f04be0000000600889fbe001d
:1005d0008a9fbe008c1f7800560007005d00330024
:1005e00003866c006450e100240032006420e100c6
:1005f000270032006150e100220032006120e1005a
:10060000210032008b854200eb07b1000134b800b5
:10061000003ab8000804420089844a00013ab80050
:100620000030b8008880400009014a00040033000f
:100630000000400081804800020149008b05e9006c
:10064000c909dd00830170000100320013002000a1
:10065000c814de004814dd004709de001200b200b5
:10066000c808de00088470000c00070001f0a1003b
:100670000cf0a70001f0a0003f0037006120e1006e
:10068000410032000801be000200be00f7ff370043
:100690006150e100fcff3a003b0037008100200080
:1006a000618055000b003d000b00200061fe2f0013
:1006b0000100e1001d0034008281710061016400cd
:1006c0008904d1000884d3000000e800faff3a0052
:1006d00071002000610064000300700002006000ef
:1006e0000900320061044400e0844c000988a50040
:1006f000050032008b05e8006808e10002003a00be
:100700008904d1000884d300f20f20000258e100d0
:1007100005003d00c75ddd00f907b2008980750066
:1007200008007800000006000bf827008b00780016
:10073000000005000004be00160007000003be0014
:100740000405be000200be0012000700844f7500c1
:10075000000006000200be006450e1000500360003
:100760006420e100020036000968a30001003a009d
:100770000800be000160a0004f0678004f05be00d3
:100780004f04be0000000600f0ff2f00f1ff27001d
:10079000f9ff3700c70ade00f107b200f50fb2001b
:1007a00008003200e1cf4200020032000170a000d8
:1007b00024000500810f70000100320004080500cc
:1007c00044000500810f700002003a00140005008b
:1007d0008502e9000000400081c04800fcff3b00aa
:0807e0000170a00024000500d7
:020000040000fa
:020000040002f8
:04aff8009eff0000b8
:020000040000fa
:020000040002f8
:04affc007f3a000098
:020000040000fa
:100008009c0400009c0400009c0400009c04000068
:100018009c0400009c0400009c0400009c04000058
:100028009c0400009c0400009c0400009c04000048
:100038009c0400009c0400009c0400009c04000038
:100048009c0400009c0400009c0400009c04000028
:100058009c0400009c0400009c0400009c04000018
:100068009c0400009c0400009c0400009c04000008
:100078009c0400009c0400009c0400009c040000f8
:100088009c0400009c0400009c0400009c040000e8
:100098009c0400009c0400009c0400009c040000d8
:1000a8009c0400009c0400009c0400009c040000c8
:1000b8009c0400009c0400009c0400009c040000b8
:1000c8009c0400009c0400009c0400009c040000a8
:1000d8009c0400009c0400009c0400009c04000098
:1000e8009c0400009c0400009c0400009c04000088
:1000f8009c040000f40300009c0400009c04000021
:100108009c0400009c0400009c0400009c04000067
:100118009c0400009c0400009c0400009c04000057
:100128009c0400009c0400009c0400009c04000047
:100138009c0400009c0400009c0400009c04000037
:100148009c0400009c0400009c0400009c04000027
:100158009c0400009c0400009c0400009c04000017
:100168009c0400009c0400009c0400009c04000007
:100178009c0400009c0400009c0400009c040000f7
:100188009c0400009c0400009c0400009c040000e7
:100198009c0400009c0400009c0400009c040000d7
:1001a8009c0400009c0400009c0400009c040000c7
:1001b8009c0400009c0400009c0400009c040000b7
:1001c8009c0400009c0400009c0400009c040000a7
:1001d8009c0400009c0400009c0400009c04000097
:1001e8009c0400009c0400009c0400009c04000087
:0801f8009c0400009c040000bf
:020000040000fa
:100208009c0400009c0400009c0400009c04000066
:100218009c0400009c0400009c0400009c04000056
:100228009c0400009c0400009c0400009c04000046
:100238009c0400009c0400009c0400009c04000036
:100248009c0400009c0400009c0400009c04000026
:100258009c0400009c0400009c0400009c04000016
:100268009c0400009c0400009c0400009c04000006
:100278009c0400009c0400009c0400009c040000f6
:100288009c0400009c0400009c0400009c040000e6
:100298009c0400009c0400009c0400009c040000d6
:1002a8009c0400009c0400009c0400009c040000c6
:1002b8009c0400009c0400009c0400009c040000b6
:1002c8009c0400009c0400009c0400009c040000a6
:1002d8009c0400009c0400009c0400009c04000096
:1002e8009c0400009c0400009c0400009c04000086
:1002f8009c040000f40300009c0400009c0400001f
:100308009c0400009c0400009c0400009c04000065
:100318009c0400009c0400009c0400009c04000055
:100328009c0400009c0400009c0400009c04000045
:100338009c0400009c0400009c0400009c04000035
:100348009c0400009c0400009c0400009c04000025
:100358009c0400009c0400009c0400009c04000015
:100368009c0400009c0400009c0400009c04000005
:100378009c0400009c0400009c0400009c040000f5
:100388009c0400009c0400009c0400009c040000e5
:100398009c0400009c0400009c0400009c040000d5
:1003a8009c0400009c0400009c0400009c040000c5
:1003b8009c0400009c0400009c0400009c040000b5
:1003c8009c0400009c0400009c0400009c040000a5
:1003d8009c0400009c0400009c0400009c04000095
:1003e8009c0400009c0400009c0400009c04000085
:0803f8009c0400009c040000bd
:020000040000fa
:1007e800801f78003400f80000002000a001880075
:1007f8000000fa0010002000004088008aa0a9002c
:100808000080fa003400f9004f007800004006002c
:100818000200fa00000f78001e00780060198800b6
:100828000000eb00001988000000eb008019880028
:100838000000eb001019880020f021002019880022
:1008480021e3a8000080fa00000006000200fa0078
:10085800000f78001e007800401988002023a800a7
:1008680005e1a8000000eb000008880001088000ee
:1008780030062000808f5000fcff36002023a9009e
:1008880020c3bf00614060000004e000fcff3200ac
:10089800001880000080fa00000006000600fa0038
:1008a80000f02f00001688008260a8008aa0a90026
:1008b800e10b200091407800f0c8b30000c0600050
:1008c80001c4b30001407000bee0b7009aa0a800c0
:1008d8000000eb00ceff070000003700004080005a
:1008e800e10f5000fdff3a0070002000d7ff07001d
:1008f800200798002e009000cf80de0006ff07003a
:100908000200200003ba23002eff0700008fbe005c
:0c0918000000eb0000408800f0ff3700fa
:020000040000fa
:1009240000080000020000000200000000000000b7
:0409340000000000bf
:020000040000fa
:040938000000fe00bd
:00000001FF
